:1000000000000120E1410000094200000B42000015
:100010000D4200000F4200001142000000000000ED
:10002000000000000000000000000000134200007B
:1000300015420000000000001742000019420000B5
:100040001B4200008D3600001B420000A924000066
:100050001B4200001B420000492C00001B42000014
:100060001B4200001B4200001B4200001B4200001C
:100070001B4200001B4200001B4200001B4200000C
:100080001B4200001B4200001B4200001B420000FC
:10009000813D00001B4200001B4200001B4200008B
:1000A0001B4200001B4200001B4200001B420000DC
:1000B0001B4200001B420000000000000000000086
:1000C0001B4200001B4200001B4200001B420000BC
:1000D0001B4200001B4200001B4200000000000009
:1000E0000000000000000000000000000000000010
:1000F0000000000000000000000000000000000000
:1001000000000000000000000000000000000000EF
:1001100000000000000000000000000000000000DF
:1004000010B5054C237833B9044B13B10448AFF34E
:1004100000800123237010BD900300200000000025
:10042000545901000C4B43B10C480D4910B5AFF3C2
:1004300000800C48036823B910BD0A48036833B92B
:100440007047094B002BF7D0BDE810401847064B0A
:10045000002BF5D0184700BF0000000054590100E0
:10046000940300208C03002000000000154B002B9B
:1004700008BF134B9D46A3F5803A00218B460F46DB
:100480001348144A121A00F063F80F4B002B00D0E7
:1004900098470E4B002B00D0984700200021040005
:1004A0000D000D48002802D00C48AFF3008000F08A
:1004B0002BF82000290000F0A1FF00F011F800BF88
:1004C0000000080000000120000000000000000003
:1004D00090030020842C0020000000000000000099
:1004E00008B5074B044613B10021AFF30080054B5C
:1004F0001868836A03B19847204600F031F800BFBE
:10050000000000004C42000070B50D4E0D4CA41BC5
:10051000A4100025A54209D10B4E0C4C03F08AFE15
:10052000A41BA4100025A54205D170BD56F82530A6
:1005300098470135EEE756F8253098470135F2E740
:10054000840300208403002084030020880300200B
:1005500002440346934200D1704703F8011BF9E7B8
:10056000FEE700BF80B400AFBFF34F8F0549054BD6
:10057000DB6803F4E062044B1343CB60BFF34F8F9F
:1005800000BFFDE700ED00E00400FA0580B400AF15
:10059000034B044A1A6000BFBD465DF8047B7047F8
:1005A000600000200090D00380B500AF00F028F973
:1005B0000346002B02D0854B854A1A6000F042F9B1
:1005C0000346002B06D0834A834B1B685B0B03F06A
:1005D0000703136000F068F90346002B05D07F4A3B
:1005E0007E4BDB6823F08073D36000F07FF9034615
:1005F000002B0ED04FF080430022C3F80C214FF0A7
:1006000080430022C3F810214FF080430022C3F83A
:10061000382500F09DF90346002B02D0704B0322D1
:100620001A6000F0B7F90346002B0BD06D4B052282
:100630001A606D4B01221A606C4B00221A606C4BE1
:100640003F221A6000F0C8F90346002B76D0694AB1
:100650004FF08053D3F80434C2F82035654A4FF088
:100660008053D3F80834C2F82435624A4FF08053DF
:10067000D3F80C34C2F828355E4A4FF08053D3F8D3
:100680001034C2F82C355B4A4FF08053D3F8143441
:10069000C2F83035574A4FF08053D3F81834C2F8B7
:1006A0003435544A4FF08053D3F81C34C2F84035E7
:1006B000504A4FF08053D3F82034C2F844354D4AA5
:1006C0004FF08053D3F82434C2F84835494A4FF0EC
:1006D0008053D3F82834C2F84C35464A4FF0805343
:1006E000D3F82C34C2F85035424A4FF08053D3F837
:1006F0003034C2F854353F4A4FF08053D3F8343485
:10070000C2F860353B4A4FF08053D3F83834C2F812
:100710006435384A4FF08053D3F83C34C2F868351A
:10072000344A4FF08053D3F84034C2F86C35314A24
:100730004FF08053D3F84434C2F870352E4A2E4B14
:10074000D3F8883043F47003C2F88830BFF34F8F7A
:10075000BFF36F8F4FF01023D3F80032002B05DB6F
:100760004FF01023D3F80432002B2BDA234B012255
:10077000C3F8042500BF214BD3F80034002BFAD076
:100780004FF010231522C3F8002200BF1B4BD3F8F3
:100790000034002BFAD04FF010231522C3F80422A6
:1007A00000BF164BD3F80034002BFAD0134B0022B5
:1007B000C3F8042500BF114BD3F80034002BFAD046
:1007C000FFF7D0FEFFF7E2FE00BF80BD74C0074018
:1007D0000DF0ADBA3C05004044020010F0ED00E021
:1007E000A0050040105600408856004018560040B2
:1007F0001456004000C0004000ED00E000E0014061
:1008000080B400AF0C4B1B68DBB2062B0DD10B4B39
:100810001B6803F00F03002B07D1094B1B6803F083
:10082000F003302B01D1012300E000231846BD4620
:100830005DF8047B704700BFE00F00F0E40F00F0AC
:10084000E80F00F080B400AF144B1B68DBB2062B3E
:100850001DD1134B1B6803F00F03002B17D1114B55
:100860001B6803F0F003302B01D1012310E00D4B86
:100870001B6803F0F003402B01D1012308E0094B72
:100880001B6803F0F003502B01D1012300E000238B
:100890001846BD465DF8047B704700BFE00F00F0CE
:1008A000E40F00F0E80F00F080B400AF0C4B1B68C1
:1008B000DBB2062B0DD10B4B1B6803F00F03002B93
:1008C00007D1094B1B6803F0F003302B01D1012342
:1008D00000E000231846BD465DF8047B704700BF6A
:1008E000E00F00F0E40F00F0E80F00F080B400AF7C
:1008F000144B1B68DBB2062B1DD1134B1B6803F096
:100900000F03002B17D1114B1B6803F0F003302BA2
:1009100001D1012310E00D4B1B6803F0F003402BC5
:1009200001D1012308E0094B1B6803F0F003502BB1
:1009300001D1012300E000231846BD465DF8047B89
:10094000704700BFE00F00F0E40F00F0E80F00F088
:1009500080B400AF0C4B1B68DBB2062B0DD10B4BE8
:100960001B6803F00F03002B07D1094B1B6803F032
:10097000F003302B01D1012300E000231846BD46CF
:100980005DF8047B704700BFE00F00F0E40F00F05B
:10099000E80F00F080B400AF0C4B1B68DBB2062BF5
:1009A0000DD10B4B1B6803F00F03002B07D1094B34
:1009B0001B6803F0F003302B01D1012300E000237A
:1009C0001846BD465DF8047B704700BFE00F00F09D
:1009D000E40F00F0E80F00F080B400AF0C4B1B6890
:1009E000DBB2062B0DD10B4B1B6803F00F03002B62
:1009F00007D1094B1B6803F0F003502B01D10123F1
:100A000000E000231846BD465DF8047B704700BF38
:100A1000E00F00F0E40F00F0E80F00F080B400AF4A
:100A2000BFF34F8F0549054BDB6803F4E062044BCD
:100A30001343CB60BFF34F8F00BFFDE700ED00E035
:100A40000400FA0580B483B000AF78600846114610
:100A50001A460346FB700B46BB7013467B704FF083
:100A6000A041FA78BB785B001A437B789B001A435D
:100A70003B7C1B021A433B7D1B041A437B6803F536
:100A8000E07341F8232000BF0C37BD465DF8047BBE
:100A9000704780B584B002AF7860002301930023D3
:100AA00000930023012200217868FFF7CBFF00BFED
:100AB0000837BD4680BD80B584B002AF78600B4674
:100AC000FB70FB78002B0AD10023019300230093D5
:100AD0000023002200217868FFF7B4FF07E04FF001
:100AE000A04201217B6801FA03F3C2F8183500BF68
:100AF0000837BD4680BD80B483B000AF78604FF04A
:100B0000A04201217B6801FA03F3C2F8083500BF57
:100B10000C37BD465DF8047B704780B483B000AFEE
:100B200078604FF0A04201217B6801FA03F3C2F81C
:100B30000C3500BF0C37BD465DF8047B704780B4B0
:100B400083B000AF78604FF0A043D3F810257B68E6
:100B500022FA03F303F0010318460C37BD465DF893
:100B6000047B704780B400AF4FF080430022C3F88D
:100B700000214FF0804301221A6000BF4FF08043F4
:100B8000D3F80031002BF9D000BFBD465DF8047BDF
:100B90007047000080B483B000AF78607B681B783A
:100BA000012B07D0022B01D0002B04E0054B0122C2
:100BB0001A6000E000BF00BF0C37BD465DF8047B43
:100BC000704700BFC4070020B0B58AB000AF1E4B0D
:100BD0001B687B621D4B1B683B621D4A07F11803B3
:100BE00092E8030083E803001A4B3C461D460FCDF4
:100BF0000FC495E8030084E8030001233B70FA2347
:100C0000FB7401233B7201237B70134B7B60002339
:100C10003B750523FB813B46184603F027F807F197
:100C20002403184603F066FA07F12003184603F080
:100C300081FA07F118030821184603F09BFA00BF58
:100C40002837BD46B0BD00BF00590100045901005E
:100C50000859010010590100950B000080B483B0C1
:100C600000AF78600B46FB70064B1B68002B02D16F
:100C7000044B01221A6000BF0C37BD465DF8047BAF
:100C8000704700BFC007002080B588B000AF0346A2
:100C9000FB711D20FFF741FF0123BB60BB681846B5
:100CA000013800BF00BF00BF00BF00BF00BF00BFD2
:100CB00000BF00BF00BF00BF00BF00BF00BF00BF3C
:100CC00000BF00BF00BF00BF00BF00BF00BF00BF2C
:100CD00000BF00BF00BF00BF00BF00BF00BF00BF1C
:100CE00000BF00BF00BF00BF00BF00BF00BF00BF0C
:100CF00000BF00BF00BF00BF00BF00BF00BF00BFFC
:100D000000BF00BF00BF00BF00BF00BF00BF00BFEB
:100D100000BF00BF00BFC3D10023FB61D7E01F208D
:100D2000FFF7FBFE0123FB60FB681846013800BF9C
:100D300000BF00BF00BF00BF00BF00BF00BF00BFBB
:100D400000BF00BF00BF00BF00BF00BF00BF00BFAB
:100D500000BF00BF00BF00BF00BF00BF00BF00BF9B
:100D600000BF00BF00BF00BF00BF00BF00BF00BF8B
:100D700000BF00BF00BF00BF00BF00BF00BF00BF7B
:100D800000BF00BF00BF00BF00BF00BF00BF00BF6B
:100D900000BF00BF00BF00BF00BF00BF00BF00BF5B
:100DA00000BFC3D1FA79FB6902FA03F303F08003B1
:100DB000002B03D00A20FFF79EFE02E00A20FFF777
:100DC000ACFE01237B617B691846013800BF00BF80
:100DD00000BF00BF00BF00BF00BF00BF00BF00BF1B
:100DE00000BF00BF00BF00BF00BF00BF00BF00BF0B
:100DF00000BF00BF00BF00BF00BF00BF00BF00BFFB
:100E000000BF00BF00BF00BF00BF00BF00BF00BFEA
:100E100000BF00BF00BF00BF00BF00BF00BF00BFDA
:100E200000BF00BF00BF00BF00BF00BF00BF00BFCA
:100E300000BF00BF00BF00BF00BF00BF00BF00BFBA
:100E4000C3D11F20FFF757FE01233B613B691846C2
:100E5000013800BF00BF00BF00BF00BF00BF00BF20
:100E600000BF00BF00BF00BF00BF00BF00BF00BF8A
:100E700000BF00BF00BF00BF00BF00BF00BF00BF7A
:100E800000BF00BF00BF00BF00BF00BF00BF00BF6A
:100E900000BF00BF00BF00BF00BF00BF00BF00BF5A
:100EA00000BF00BF00BF00BF00BF00BF00BF00BF4A
:100EB00000BF00BF00BF00BF00BF00BF00BF00BF3A
:100EC00000BF00BF00BFC3D1FB690133FB61FB69F9
:100ED000072B7FF724AF1D20FFF70DFE0123BB6119
:100EE000BB691846013800BF00BF00BF00BF00BF8C
:100EF00000BF00BF00BF00BF00BF00BF00BF00BFFA
:100F000000BF00BF00BF00BF00BF00BF00BF00BFE9
:100F100000BF00BF00BF00BF00BF00BF00BF00BFD9
:100F200000BF00BF00BF00BF00BF00BF00BF00BFC9
:100F300000BF00BF00BF00BF00BF00BF00BF00BFB9
:100F400000BF00BF00BF00BF00BF00BF00BF00BFA9
:100F500000BF00BF00BF00BF00BFC3D100BF20372C
:100F6000BD4680BD80B586B000AF786000237B6150
:100F700088E01F20FFF7D1FD01233B613B69184644
:100F8000013800BF00BF00BF00BF00BF00BF00BFEF
:100F900000BF00BF00BF00BF00BF00BF00BF00BF59
:100FA00000BF00BF00BF00BF00BF00BF00BF00BF49
:100FB00000BF00BF00BF00BF00BF00BF00BF00BF39
:100FC00000BF00BF00BF00BF00BF00BF00BF00BF29
:100FD00000BF00BF00BF00BF00BF00BF00BF00BF19
:100FE00000BF00BF00BF00BF00BF00BF00BF00BF09
:100FF00000BF00BF00BFC3D11F20FFF77CFD01234E
:10100000FB60FB681846013800BF00BF00BF00BF8F
:1010100000BF00BF00BF00BF00BF00BF00BF00BFD8
:1010200000BF00BF00BF00BF00BF00BF00BF00BFC8
:1010300000BF00BF00BF00BF00BF00BF00BF00BFB8
:1010400000BF00BF00BF00BF00BF00BF00BF00BFA8
:1010500000BF00BF00BF00BF00BF00BF00BF00BF98
:1010600000BF00BF00BF00BF00BF00BF00BF00BF88
:1010700000BF00BF00BF00BF00BF00BFC3D17B697E
:1010800001337B617A697B689A42FFF672AF00BFD9
:101090001837BD4680BD000080B586B000AF7860CF
:1010A00000237B61664B1B683B6101211F20FFF71A
:1010B00002FD01210A20FFF7FEFC01211D20FFF7A0
:1010C000FAFC01211C20FFF7F6FC00210320FFF7AA
:1010D000F2FC1D20FFF721FD1C20FFF71EFD0A205A
:1010E000FFF71BFD1F20FFF706FD0A23BB60BB684F
:1010F0001846013800BF00BF00BF00BF00BF00BFDF
:1011000000BF00BF00BF00BF00BF00BF00BF00BFE7
:1011100000BF00BF00BF00BF00BF00BF00BF00BFD7
:1011200000BF00BF00BF00BF00BF00BF00BF00BFC7
:1011300000BF00BF00BF00BF00BF00BF00BF00BFB7
:1011400000BF00BF00BF00BF00BF00BF00BF00BFA7
:1011500000BF00BF00BF00BF00BF00BF00BF00BF97
:1011600000BF00BF00BF00BFC3D11C20FFF7C3FCFE
:10117000032000F001FD1D20FFF7BDFC0820FFF754
:10118000F1FE7B68012B16D12D4B1B685B68FB6061
:1011900000237B610AE07B6908333A6913441B78BA
:1011A0001846FFF771FD7B6901337B617A69FB6843
:1011B0009A42F0D311E000237B6109E07B69214A68
:1011C00013441B781846FFF75FFD7B6901337B6191
:1011D0007A691D4B1B689A42F0D31D20FFF78BFCE8
:1011E0006420FFF7BFFE1F20FFF753FC0A20FFF724
:1011F00050FC0320FFF7A3FC0346002B1BD1134B2D
:1012000000221A72124B1B78DAB2104B5A710F4837
:1012100002F0F6FD0F4B1B785BB2DBB20133DBB2A1
:101220005AB20C4B1A700A4B1B78DBB20133DAB29C
:10123000074B1A7000E000BF1837BD4680BD00BFE5
:10124000802C002050420000FC5801006C0200205D
:10125000D4070020D507002080B584B002AFA5E0F8
:101260005B4B1B68002B2CDD5A4B1B685A4AD35C26
:10127000DAB25A4B1A70574B1B680133554A136048
:10128000534B1B68013B524A1360524B1B68524A36
:10129000D35CDAB2514B5A704E4B1B6801334D4A46
:1012A00013604B4B1B68013B494A1360494B1B6859
:1012B000B3F5806F02D3474B00221A60444B1B6882
:1012C00005E0464B00221A70444B00225A7002225D
:1012D00002230093424B4149424800F083FF404BB8
:1012E0001B78002B03D13E4B5B78002B1BD03E4B71
:1012F0001B7819463A4B1A783B4B0B445A713A4BC0
:101300001B780133DAB2384B1A70374B1B78194609
:10131000334B5A78344B0B445A71334B1B7801339F
:10132000DAB2314B1A70304B1B78F92B38D92F4B6E
:101330001B78DAB22C4B5A712B4802F061FD024641
:101340002B4B1A602A4B1B68002B03D04FF0FF3346
:101350007B600FE0274B1B785BB2DBB20133DBB263
:101360005AB2244B1A70214B1B78DBB20133DAB22C
:101370001E4B1A7000237B6008E01B4A7B681344F5
:10138000053300221A707B6801337B60164B1B7893
:101390001A467B689A42F0DC134B01221A7014E063
:1013A0000F4B00221A700E4B00225A70084B1B681C
:1013B000002B3FF755AF1A2001F034FC0346002BF9
:1013C0007FF44EAF0C4B00221A600837BD4680BD3B
:1013D000D0070020B4070020B4030020AC03002095
:1013E000B00300203C59010064000020D407002015
:1013F000DC080020D5070020C007002090B58BB086
:1014000000AF00237B6200233B620023FB61FFF7F8
:10141000A9FBFFF7D9FB002000F040FB01210220CF
:10142000FFF749FB0220FFF766FB9E4B1B681B681A
:10143000B3F1FF3F03D00120FFF72EFE02E00020B2
:10144000FFF72AFE0220FFF768FB032000F094FB61
:101450000220FFF750FB944B07F108040FCB84E800
:101460000F000923FB7200233B7507F108030022DC
:1014700019468E4800F000FE00237B6207E08C4A8C
:101480007B6A134400221A707B6A01337B627B6A99
:10149000B3F5806FF3DB01F0EDFA034683F001034F
:1014A000DBB2002B01D001F0ADFA824B1B687B60F0
:1014B00001237B713B1D804A19461A2001F0ECFA8A
:1014C00001211A2001F042FB7C4B01221A707C4B57
:1014D0001B78DAB2794B5A7102F092FD794B1B6896
:1014E000012B40F0738267E2774B1B785BB2DBB273
:1014F000013BDBB25AB2744B1A70734B1B785BB270
:10150000002B14DC6E4B1B78DAB2704B5A716F48AB
:1015100002F076FC02466E4B1A60694B1B78DBB218
:101520000133DAB2664B1A70674B01221A70694BAD
:101530001B7803F00103DBB2002B4BD1654B1B780A
:101540005B08DBB2BB6100237B623CE0624B1B6843
:101550007A6A52005F490A445179554AD1545E4B28
:101560001B6801335C4A13605C4B1B6801335B4AA8
:101570001360594B1B687A6A5200013255490A447C
:1015800051794B4AD154544B1B680133B3F5806FEA
:1015900008D3514B00221A60504B1B6801334F4A4D
:1015A000136009E04C4B1B6801334B4A13604B4BF3
:1015B0001B680133494A1360474B1B68484B1B6843
:1015C0007B6A01337B627A6ABB699A42BEDBFFF7B2
:1015D00043FEF1E13F4B5B79612B00F0ED813D4B28
:1015E0005B79712B40F0BC803A4B9B79712B40F0BA
:1015F000B780384BDB79712B40F0B2802F4B1B78D2
:10160000012B6FD92D4B1B78202B6BD82B4B1B78C4
:101610007B6208E0294A7B6A1344053300221A7072
:101620007B6A01337B627B6A1F2BF3DD234B212214
:101630001A70234B1B78DAB2204B5A711F4802F004
:10164000DFFB0246224B1A60214B1B68002B03D0A4
:101650004FF0FF337B620FE01B4B1B785BB2DBB2BA
:101660000133DBB25AB2184B1A70154B1B78DBB240
:101670000133DAB2124B1A7000237B6208E00F4A82
:101680007B6A1344053300221A707B6A01337B6244
:101690000A4B1B781A467B6A9A42F0DC074B012200
:1016A0001A705CE0802C0020285901003C59010090
:1016B000B4030020385901005D0C000064000020D4
:1016C000D4070020C4070020D507002068010020AF
:1016D000DC080020D8070020B8070020D007002031
:1016E000B40700209A4B1B78202B40F26581994B60
:1016F0001B78DAB2964B5A71954802F081FB02468C
:10170000954B1A60944B1B68002B03D04FF0FF33AE
:101710007B620FE0914B1B785BB2DBB20133DBB233
:101720005AB28E4B1A708B4B1B78DBB20133DAB294
:10173000884B1A7000237B6208E0854A7B6A134459
:10174000053300221A707B6A01337B62804B1B7861
:101750001A467B6A9A42F0DC7D4B01221A702BE11B
:101760007F4B5B79122B0CD17D4B9B79352B08D1AC
:101770007B4BDB79372B04D1C82000F0FDF9FFF754
:101780004DF9774B5B79FB2B39D1754B9B799A2BB4
:1017900035D1734BDB79BB2B31D1724B00221A60F0
:1017A00000233B62704B02221A60C82000F0E4F96B
:1017B000012000F073F9674B1B78DAB26B4B5A715A
:1017C0006A4B01221A72694802F01AFB634B1B78BC
:1017D0005BB2DBB20133DBB25AB2604B1A705D4BC5
:1017E0001B78DBB20133DAB25A4B1A705F4B00221E
:1017F0001A725F4B1B6801335D4A1360DCE0584B83
:101800005B79FB2B66D1564B9B799A2B62D1544B5B
:10181000DB79CC2B5ED1544B01221A60554B1B68EF
:10182000FB61504B1A68FB699A4202D04E4B002272
:101830001A604D4B1B68012B25D14F4B1868494B43
:1018400002224C4900F06AF9484B01221A72414BBE
:101850001B78DAB2454B5A71444802F0D1FA3F4B3B
:101860001B785BB2DBB20133DBB25AB23B4B1A706E
:10187000384B1B78DBB20133DAB2364B1A703B4B74
:1018800000221A7298E0374B00221A6000233B6254
:10189000C82000F071F9012000F000F92D4B1B78F1
:1018A000DAB2324B5A71314802F0AAFA2B4B1B784C
:1018B0005BB2DBB20133DBB25AB2284B1A70254B54
:1018C0001B78DBB20133DAB2224B1A70274B0022AD
:1018D0001A7271E0224B5B79FB2B6DD1204B9B7907
:1018E0009A2B69D1204B1B68022B47D1224B1A68D7
:1018F0003B6A02339B00D018194BDB791A46194B0F
:101900001C4900F00BF9164BDB791A463B6A13446D
:101910003B62164B01221A720E4B1B78DAB2134B44
:101920005A71124802F06CFA0C4B1B785BB2DBB2B6
:101930000133DBB25AB2094B1A70064B1B78DBB28B
:101940000133DAB2034B1A70094B01221A6030E0FE
:1019500064000020D4070020DC080020D507002008
:10196000D8070020BC070020C80700206C02002018
:10197000CC070020E0070020802C0020174B00221D
:101980001A72174B1B78DAB2144B5A71134802F0D3
:1019900037FA144B1B785BB2DBB20133DBB25AB2BD
:1019A000104B1A700E4B1B78DBB20133DAB20C4BC2
:1019B0001A700A4B00221A720B4802F0BBFA034657
:1019C000002B3FF491AD094B00221A60084B1B68B5
:1019D000012B7FF483ADFFF73FFC7FE56C02002015
:1019E000D4070020D5070020D8070020C407002016
:1019F000C007002080B483B000AF7860114B022292
:101A0000C3F8042500BF0F4BD3F80034002BFAD0E5
:101A10000C4A7B68C2F8083500BF0A4BD3F8003483
:101A2000002BFAD0074B0022C3F8042500BF054B5A
:101A3000D3F80034002BFAD000BF0C37BD465DF858
:101A4000047B704700E0014080B483B000AF786051
:101A50003960114B0122C3F8042500BF0E4BD3F8A7
:101A60000034002BFAD07B683A681A6000BF0A4B3A
:101A7000D3F80034002BFAD0074B0022C3F804251A
:101A800000BF054BD3F80034002BFAD000BF0C3751
:101A9000BD465DF8047B704700E0014080B586B02C
:101AA00000AF78604FF080531B693B614FF080536B
:101AB0005A6918493B69B1FBF3F3D31A013BFB6048
:101AC000FB683A6902FB03F31A46134B1A607B6802
:101AD000012B1AD100237B610FE00F4B1A687B6941
:101AE000396901FB03F323F003031344BB60B868B7
:101AF000FFF780FF7B6901337B61064A3B69B2FBDC
:101B0000F3F35A1C7B699A42E7D800BF1837BD46E9
:101B100080BD00BFAB160100802C002080B586B0D0
:101B200000AFF860B9607A603B60BB683B6100233E
:101B30007B6118E07B699B00FA68D0187B699B0089
:101B40003A6913441B681946FFF77EFF3B681A6821
:101B50007B699B0039690B441B681A443B681A6017
:101B60007B6901337B617A697B689A42E2D3012306
:101B700018461837BD4680BD80B485B000AF786088
:101B800043E07B68013B7B6040F2E733FB60FB682E
:101B90001846013800BF00BF00BF00BF00BF00BF34
:101BA00000BF00BF00BF00BF00BF00BF00BF00BF3D
:101BB00000BF00BF00BF00BF00BF00BF00BF00BF2D
:101BC00000BF00BF00BF00BF00BF00BF00BF00BF1D
:101BD00000BF00BF00BF00BF00BF00BF00BF00BF0D
:101BE00000BF00BF00BF00BF00BF00BF00BF00BFFD
:101BF00000BF00BF00BF00BF00BF00BF00BF00BFED
:101C000000BF00BF00BF00BFC3D17B68002BB8D1AD
:101C100000BF1437BD465DF8047B704780B483B0C5
:101C200000AF0346FB71094997F907305B09FA7960
:101C300002F01F02012000FA02F241F8232000BF47
:101C40000C37BD465DF8047B704700BF00E100E043
:101C500080B483B000AF0346FB71094997F90730A0
:101C60005B09FA7902F01F02012000FA02F26033E8
:101C700041F8232000BF0C37BD465DF8047B704758
:101C800000E100E080B483B000AF03463960FB712F
:101C900097F90730002B0BDA0D49FB7903F00F039E
:101CA000043B3A68D2B25201D2B20B441A7609E030
:101CB000084997F907303A68D2B25201D2B20B44C0
:101CC00083F8002300BF0C37BD465DF8047B7047E6
:101CD00000ED00E000E100E080B582B000AF034617
:101CE0000A46FB711346BB71BA7997F90730114662
:101CF0001846FFF7C7FF97F907301846FFF7A8FF08
:101D000097F907301846FFF789FF00BF0837BD462F
:101D100080BD80B483B000AF78600B46FB70FB7869
:101D20007A68134401221A6000BF0C37BD465DF883
:101D3000047B704780B483B000AF78600B467B8033
:101D40007B887A68134400221A6000BF0C37BD46B6
:101D50005DF8047B704780B483B000AF78600B46B9
:101D60007B807B887A6813441B68002B14BF012397
:101D70000023DBB218460C37BD465DF8047B704784
:101D800080B483B000AF786039607B683A68C3F88C
:101D9000042300BF0C37BD465DF8047B704780B458
:101DA00083B000AF786039607B683A68C3F8082375
:101DB00000BF0C37BD465DF8047B704780B483B02C
:101DC00000AF78607B680722C3F8002500BF0C379E
:101DD000BD465DF8047B704780B485B000AFF86005
:101DE000B9607A603B60FB68BA68C3F80825FB6895
:101DF0007A68C3F80C25FB683A68C3F8102500BF61
:101E00001437BD465DF8047B704780B483B000AFE3
:101E1000786039603A687B68C3F8242500BF0C37C6
:101E2000BD465DF8047B704780B485B000AFF860B4
:101E3000B9601346FB71BA68FB68C3F84425FA79A8
:101E4000FB68C3F8482500BF1437BD465DF8047B26
:101E5000704780B485B000AFF860B9601346FB717D
:101E6000BA68FB68C3F83425FA79FB68C3F83825EB
:101E700000BF1437BD465DF8047B704780B485B061
:101E800000AF78600B46FB701346BB70BB78002B2D
:101E900014BF01230023DBB2FB60FB78022B09D0C7
:101EA000032B0CD0012B00D00EE0FB6843F00203A3
:101EB000FB6009E0FB6843F00403FB6004E0FB689F
:101EC00043F00603FB6000BF7B68FA68C3F8542543
:101ED00000BF1437BD465DF8047B704780B483B003
:101EE00000AF78600B46FB70FA787B68C3F8C025BA
:101EF00000BF0C37BD465DF8047B704780B483B0EB
:101F000000AF78607B680122C3F8502500BF0C3712
:101F1000BD465DF8047B704780B483B000AF786045
:101F20007B680022C3F8502500BF0C37BD465DF822
:101F3000047B704780B483B000AF78607B68012277
:101F4000C3F8402500BF0C37BD465DF8047B7047E1
:101F500080B483B000AF78607B680022C3F840256E
:101F600000BF0C37BD465DF8047B704780B483B07A
:101F700000AF78607B6803F06043B3F1005F0CBF93
:101F800001230023DBB218460C37BD465DF8047B05
:101F9000704780B483B000AF7860084611461A4697
:101FA0000346FB700B46BB7013467B704FF0A0419D
:101FB000FA78BB785B001A437B789B001A433B7C22
:101FC0001B021A433B7D1B041A437B6803F5E07335
:101FD00041F8232000BF0C37BD465DF8047B7047F5
:101FE00080B584B002AF7860002301930023009392
:101FF0000023012201217868FFF7CBFF00BF0837DB
:10200000BD4680BD80B584B002AF78600B46FB70E2
:10201000FA78002301930023009313460022002145
:102020007868FFF7B6FF00BF0837BD4680BD80B4B3
:1020300083B000AF78604FF0A04201217B6801FAC5
:1020400003F3C2F8083500BF0C37BD465DF8047BCA
:10205000704780B483B000AF78604FF0A042012198
:102060007B6801FA03F3C2F80C3500BF0C37BD469C
:102070005DF8047B7047000080B588B000AFF86061
:10208000B9607A60FB685B795B01544A13447B61F9
:102090007B691B7E002B01D008239AE0BB68002BD4
:1020A00005D1FB685B791B014D4A1344BB607B691A
:1020B0007A681A60BB681B7B012B05D8BB681B784C
:1020C0001846FFF7C6FF04E0BB681B781846FFF709
:1020D000AEFF4FF0A042BB681B7803F5E07301210F
:1020E00042F82310BB685B78FF2B09D0BB685B7894
:1020F000FB61F869FFF7ADFFF869FFF771FF02E0D8
:102100004FF0FF33FB61BB689B78FF2B07D0BB68A8
:102110009B78BB610021B869FFF774FF02E04FF0C4
:10212000FF33BB61BB68DB78FF2B09D0BB68DB7872
:102130001846FFF77CFFBB68DB781846FFF750FFB7
:10214000FB685B791846BB68D978244A430113447D
:102150001A330A461A70FB681B683B61BB681B7820
:102160001946BB69FA693869FFF736FEBB689B6898
:1021700019463869FFF749FEBB68197BBB685B7B72
:102180001A463869FFF77AFEBB685B7919463869E9
:10219000FFF7A4FE7B691B68002B03D0422138693E
:1021A000FFF7EEFD3869FFF709FE7B691B68002B1E
:1021B00008D0FB6893F90420BB681B7919461046C8
:1021C000FFF78AFD7B6900225A767B6901221A7625
:1021D000002318462037BD4680BD00BFE008002020
:1021E0004459010080B588B000AFF860B9603B6029
:1021F0001346FB71BB683B613B68BB61FB793B7578
:1022000097F828303B7707F1100300221946F86849
:1022100000F0E8F8034618462037BD4680BD80B57B
:1022200082B000AF78607B689B7EFF2B04D07B6818
:102230009B7E1846FFF7FBFE7B6800225A767B6880
:1022400000221A717B681B687A680432104698472E
:1022500000BF0837BD4680BD80B582B000AF786052
:102260000B46FB70FB7883F00103DBB2002B04D03C
:1022700042217868FFF793FD03E042217868FFF779
:102280007FFD00BF0837BD4680BD80B582B000AF7E
:10229000786039603B6803F00103002B03D0786855
:1022A000FFF72CFE02E07868FFF736FE3B6803F08C
:1022B0000203002B03D07868FFF73CFE02E0786849
:1022C000FFF746FE00BF0837BD4680BD80B584B02D
:1022D00000AFF860B9607A603B607B681B68002BD8
:1022E0000AD07B681B681846FFF740FE034683F060
:1022F0000103DBB2002B0ED17B689B68002B0FD053
:102300007B689B681846FFF731FE034683F00103A4
:10231000DBB2002B04D0BB6800225A7610235DE0AC
:102320007B6819687B681B791A46F868FFF77CFDA3
:102330007B6899687B681B7B1A46F868FFF789FD04
:102340004FF48C71F868FFF7F5FC4FF48271F86870
:10235000FFF7F0FC3968F868FFF797FF3B6803F078
:102360000803002B03D11021F868FFF7D2FCBB68EB
:102370001B68002B25D100BF4FF48C71F868FFF764
:10238000EAFC034683F00103DBB2002BF4D11421F5
:10239000F868FFF7BEFC00BF4FF48271F868FFF7E2
:1023A000DAFC034683F00103DBB2002BF4D1BB68F7
:1023B0009B7EFF2B11D0BB689B7E1846FFF737FE34
:1023C0000BE03B6803F00403002B0CBF0123002348
:1023D000DBB21946F868FFF73FFF002318461037B5
:1023E000BD4680BD90B587B000AFF860B9607A6037
:1023F000FB685B795B011E4A13447B617B695B7EF2
:10240000DBB2002B01D011232EE07B691B68002B6F
:1024100007D07B6803F01403002B02D17B690122F3
:102420005A767B69BA6803F1080413460FCB84E837
:102430000F007A69537F6FF3000353777A69537FF4
:102440006FF3410353777B699B7EFF2B04D07B693D
:102450009B7E1846FFF7FDFDFB6818687B68BA682D
:102460007969FFF733FF034618461C37BD4690BD18
:10247000E008002080B582B000AF786039604FF48A
:102480008C717868FFF767FC0346002B07D04FF488
:102490008C717868FFF74EFC3868FFF7C0FE00BF0C
:1024A0000837BD4680BD000080B582B000AF054B47
:1024B0007B6079680448FFF7DDFF00BF0837BD4641
:1024C00080BD00BFE00800200030004080B582B031
:1024D00000AF0346FB80FB88184600F024F8034653
:1024E0001B68012B0CBF01230023DBB21846083701
:1024F000BD4680BD80B584B000AF0346FB80FB883D
:10250000184600F010F803461A4600231360FB88B3
:10251000184600F008F803461B68FB60FB6800BF24
:102520001037BD4680BD80B483B000AF0346FB804A
:10253000FB8803F1804303F5C04318460C37BD46C2
:102540005DF8047B7047000080B483B000AF786012
:10255000044A7B68C2F8043300BF0C37BD465DF8FF
:10256000047B70470060004080B483B000AF7860A7
:10257000054BD3F804237B68134018460C37BD463F
:102580005DF8047B704700BF0060004080B483B0FA
:1025900000AF78600949094A7B6803F5A27352F8D5
:1025A000233043F001027B6803F5A27341F8232036
:1025B00000BF0C37BD465DF8047B704700600040EB
:1025C00080B485B000AFF860B9601346FB7116495E
:1025D000154AFB6803F5A27352F8233023F44733FE
:1025E00023F44073FA6802F5A27241F822300E48D3
:1025F0000D4AFB6803F5A27352F82320BB681B0247
:1026000003F4F851FB791B0403F440330B431A43E2
:10261000FB6803F5A27340F8232000BF1437BD46C2
:102620005DF8047B704700BF0060004080B483B059
:1026300000AF7860074A7B6803F5A27352F8233035
:102640001B0A03F01F0318460C37BD465DF8047BD8
:10265000704700BF0060004080B483B000AF786076
:10266000074A7B6803F5A27352F823301B0C03F072
:102670000303DBB218460C37BD465DF8047B704798
:102680000060004080B483B000AF78600846114617
:102690001A460346FB700B46BB7013467B704FF027
:1026A000A041FA78BB785B001A437B789B001A4301
:1026B0003B7C1B021A433B7D1B041A437B6803F5DA
:1026C000E07341F8232000BF0C37BD465DF8047B62
:1026D000704780B584B002AF78600B46FB70FA7823
:1026E0000023019300230093134600220021786801
:1026F000FFF7C8FF00BF0837BD4680BD80B485B076
:1027000000AF78604FF0A0427B6803F5E07352F8A9
:10271000233023F00203FB604FF0A0417B6803F5F8
:10272000E073FA6841F8232000BF1437BD465DF816
:10273000047B704780B483B000AF78600B46FB70B9
:102740004FF0A0414FF0A0427B6803F5E07352F8D0
:10275000233023F440327B6803F5E07341F82320F3
:102760004FF0A0414FF0A0427B6803F5E07352F8B0
:102770002330FA7812041A437B6803F5E07341F8BA
:10278000232000BF0C37BD465DF8047B704780B442
:1027900083B000AF78604FF0A043D3F810257B687A
:1027A00022FA03F303F0010318460C37BD465DF827
:1027B000047B704780B400AF4FF0A043D3F81035CE
:1027C0001846BD465DF8047B704780B483B000AF07
:1027D00078604FF0A0427B6803F5E07352F8233035
:1027E0001B0C03F00303DBB218460C37BD465DF843
:1027F000047B704780B483B000AF78600D4A7B687B
:102800001344303393F90030002B09DB094A7B680D
:102810001344303393F90030072B01DC012300E02F
:10282000002303F00103DBB218460C37BD465DF808
:10283000047B70470009002080B483B000AF78604B
:10284000084A7B681344303393F90030072BCCBF20
:1028500001230023DBB218460C37BD465DF8047B2C
:10286000704700BF0009002080B483B000AF7860DB
:10287000074A7B681344303393F90030DB43DBB203
:10288000DB09DBB218460C37BD465DF8047B7047A8
:102890000009002080B485B000AFF860B9607A60AC
:1028A000FB70BB6859B2104AFB68134430330A46C8
:1028B0001A700D49BB687A6841F82320FB7883F0D1
:1028C0000103DBB2002B08D0BB68083BFA6851B2A9
:1028D000054A13440A4683F8502000BF1437BD460A
:1028E0005DF8047B704700BF0009002080B483B00E
:1028F00000AF7860054A7B6813443033FF221A70BA
:1029000000BF0C37BD465DF8047B7047000900200E
:1029100080B483B000AF7860054A7B6813443033DD
:1029200093F9003018460C37BD465DF8047B7047BC
:102930000009002080B483B000AF7860044A7B684F
:1029400052F8233018460C37BD465DF8047B7047BB
:102950000009002080B588B000AFF860B960134668
:10296000FB71FF23FB77FB79002B01D0002300E0F4
:1029700008237B61FB79002B01D0082300E00C23A6
:102980003B617B69BB6112E00E4ABB6952F82330A0
:10299000B3F1FF3F08D1FB79BA68B969F868FFF76E
:1029A00079FFBB69FB7706E0BB690133BB61BA699C
:1029B0003B699A42E8D397F91F3018462037BD4645
:1029C00080BD00BF0009002080B483B000AF034683
:1029D000FB71FB790A4A4FF0FF3142F82310FB7973
:1029E000072B06D9FB79083B054A1344FF2283F8DD
:1029F000502000BF0C37BD465DF8047B704700BF18
:102A00000009002080B582B000AF194B93F8543014
:102A1000002B01D0082326E00023FB7106E0FB79A0
:102A20001846FFF763FFFB790133FB71FB791F2B1E
:102A3000F5D90023FB7106E0FB791846FFF7C4FFC8
:102A4000FB790133FB71FB790B2BF5D906210620AD
:102A5000FFF742F94FF00040FFF776FD044B0122EB
:102A600083F85420002318460837BD4680BD00BFB8
:102A70000009002080B400AF064B93F85430002BBF
:102A800014BF01230023DBB21846BD465DF8047B6A
:102A9000704700BF0009002080B586B000AFF86025
:102AA000B9607A6000237B61F868FFF7DDFE0346BA
:102AB000002B02D008237B6140E0BB68DB781A461C
:102AC0007968F868FFF746FF0346FB7497F91330FF
:102AD000B3F1FF3F30D0BB689B78002B03D0F86880
:102AE000FFF70CFE05E0BB685B781946F868FFF756
:102AF000F0FDBB68DB78002B08D097F91300BB68AA
:102B00001B781A46F968FFF75BFD17E097F9133059
:102B1000083B97F91320083A0B490A4492F95010E0
:102B2000BA681278920152B20A4351B2064A13446B
:102B30000A4683F8502001E004237B617B69184634
:102B40001837BD4680BD00BF0009002080B586B0A3
:102B500000AF78600B46FB707868FFF76DFE0346A8
:102B6000002B2BD07868FFF7D3FE0346083B2C4A96
:102B7000134493F95030BB75BB7D9B097B757B7DFE
:102B8000032B0ED1FFF716FE014601227B6802FAE5
:102B900003F30B40002B01D0032300E00223FB755D
:102BA00006E07B7D012B01D1022300E00323FB75AE
:102BB000FB7D19467868FFF7BDFD2DE07868FFF7CB
:102BC00019FE0346002B27D07868FFF7A1FE0346C5
:102BD0003B613B699BB240339BB29B00FB813B69ED
:102BE0001846FFF7D3FCFB891846FFF783FCFB78F8
:102BF000002B11D07868FFF78BFE03461846FFF7CD
:102C000099FEB860BB68002B06D001223B6902FA2E
:102C100003F31846FFF798FC00BF1837BD4680BD88
:102C20000009002080B582B000AF78607868FFF7B7
:102C3000AEFD0346002B14BF01230023DBB2184670
:102C40000837BD4680BD000080B592B000AF0023BC
:102C50007B6400233B644FF480737B8701237B6399
:102C60000023FB631DE07B8F1846FFF72FFC034614
:102C7000002B0DD0786BFFF777FC0346002B07D0B5
:102C80007B8F1846FFF736FC7A6C7B6B13437B64B3
:102C90007B6B5B007B637B8F04337B87FB6B013338
:102CA000FB63FB6B072BDED94FF4BE70FFF70EFC06
:102CB0000346002B0AD04FF4BE70FFF71BFC7B6C61
:102CC00043F000437B64FFF775FD38647B6CDBB237
:102CD000002B26D001237B630023FB631EE07A6B6D
:102CE0007B6C1340002B13D0F86BFFF79FFC7862CE
:102CF000F86BFFF7B1FC034687F82330F86BFFF75A
:102D000019FEF86197F82320FB691146786A984705
:102D10007B6B5B007B63FB6B0133FB63FB6B072B04
:102D2000DDD97B6C002B80F29680002387F833304E
:102D30000023FB624FF0FF33BB62002387F8333080
:102D40000023FB636CE0464AFB6B1344503393F95A
:102D50000030FB76FB7E23F0C0037B61404AFB6BB7
:102D60001344503393F90030B3F1FF3F55D0BA6AA2
:102D70007B6922FA03F303F00103002B4DD0FB7EA5
:102D80009B09FB747869FFF7C3FD03461846FFF7FC
:102D9000D1FDF860FB68002B02D1FB7C032B3CD1FA
:102DA00001227B6902FA03F37B63FB7C032B03D1D3
:102DB000FA6A7B6B1343FB627869FFF706FD0346F3
:102DC000FB727A6B3B6C1340002B02D0FB7A022B18
:102DD00007D07A6B3B6C1340002B1ED1FB7A032B80
:102DE0001BD1FB7C032B10D1FB7A022B01D10323D7
:102DF00000E00223BB72BB7A19467869FFF79AFCA0
:102E000097F83330013387F83330FB68002B04D058
:102E1000FA7CFB68114678699847FB6B0133FB63CA
:102E2000FB6B032B8FD997F83330002B0ED0FFF7B5
:102E3000C1FC78607A683B6C9A4203D1002387F822
:102E4000333003E07B683B64FB6ABB6297F8333046
:102E5000002B7FF472AF00BF4837BD4680BD00BF76
:102E60000009002080B483B000AF0346FB7109491C
:102E700097F907305B09FA7902F01F02012000FA86
:102E800002F241F8232000BF0C37BD465DF8047BF9
:102E9000704700BF00E100E080B483B000AF03469C
:102EA000FB71094997F907305B09FA7902F01F02B3
:102EB000012000FA02F2203341F8232000BF0C3732
:102EC000BD465DF8047B704700E100E080B483B04C
:102ED00000AF0346FB71094997F907305B09FA799E
:102EE00002F01F02012000FA02F2403341F82320D1
:102EF00000BF0C37BD465DF8047B704700E100E081
:102F000080B483B000AF0346FB71094997F90730DD
:102F10005B09FA7902F01F02012000FA02F2603325
:102F200041F8232000BF0C37BD465DF8047B704795
:102F300000E100E080B483B000AF03463960FB716C
:102F400097F90730002B0BDA0D49FB7903F00F03DB
:102F5000043B3A68D2B25201D2B20B441A7609E06D
:102F6000084997F907303A68D2B25201D2B20B44FD
:102F700083F8002300BF0C37BD465DF8047B704723
:102F800000ED00E000E100E080B487B000AF7860C1
:102F90007B681B687B617B69FB60FB6893FAA3F32A
:102FA000BB60BB683B613B691BBA00BF18461C375E
:102FB000BD465DF8047B704780B584B000AF786093
:102FC0007868FFF7E1FF0346FB60FB681BBA00BFB0
:102FD00018461037BD4680BD80B483B000AF78601E
:102FE0000A4B0B4AC3F81425084A0A4B5B7C013B89
:102FF0001B0443F0807343F0FC03C2F8183500BF94
:103000000C37BD465DF8047B704700BF00100040E0
:10301000080003007003002080B483B000AF786024
:103020000C4B0D4AC3F814250A490C4B5B7C013B41
:103030001B041A467B681B021A437B68134343F048
:103040008073C1F8183500BF0C37BD465DF8047BAE
:10305000704700BF00100040000101007003002015
:1030600090B583B000AF0346FB71FB7903F0010319
:10307000002B06D0144C1548FFF79EFF0346C4F8FA
:103080001C35FB7903F00203002B06D00E4C1048D0
:10309000FFF792FF0346C4F82035FB7903F00403E1
:1030A000002B0DD0084C0B48FFF76EFF0346C4F809
:1030B0002435054C0848FFF767FF0346C4F8283558
:1030C00000BF0C37BD4690BD0010004070030020CB
:1030D00074030020780300207C03002080B400AF3C
:1030E000044B054A927AC3F80C2500BFBD465DF833
:1030F000047B7047001000406409002080B400AFDA
:10310000144B154A127AC3F81025134B1B7A032B64
:103110001AD801A252F823F0313100002931000001
:1031200039310000413100000C4B30221A600CE0B4
:103130000A4B40221A6008E0084BFA221A6004E0A9
:10314000064B40221A6000E000BF00BFBD465DF89C
:10315000047B70470010004064090020702C0020A0
:1031600080B400AF094B1B78002B06D0012B00D098
:1031700007E0074B074A1A6003E0054B064A1A604E
:1031800000BF00BFBD465DF8047B704764090020A6
:103190007C2C0020D92F00001930000080B400AF33
:1031A000124B134A527AC3F83425114B5B7A022B27
:1031B00009D10E4B4FF6FF72C3F83C250B4B0D4A5D
:1031C000C3F838250CE00A4B5B7A012B08D1074B7A
:1031D000FF22C3F83C25054B40F20712C3F83825FF
:1031E00000BFBD465DF8047B704700BF0010004083
:1031F000640900202110010080B500AFFFF76EFFC9
:10320000FFF77CFFFFF7ACFFFFF7C8FF034B1B681E
:10321000034AD27C1046984700BF80BD7C2C00201A
:103220006409002080B400AF0B4B00221A640A4BE3
:1032300000225A64084B00229A64084B00221A6448
:10324000064B00225A64054B00229A6400BFBD461B
:103250005DF8047B704700BF8C190020E82900202E
:1032600080B582B000AFFFF7DDFF00237B600CE08C
:103270007A6813461B021344114A1A4411497B68A9
:1032800041F823207B6801337B607B680F2BEFDDE7
:1032900000233B600CE03A6813461B0213440A4AC1
:1032A0001A440A493B6841F823203B6801333B60DC
:1032B0003B680F2BEFDD00BF0837BD4680BD00BF68
:1032C0007C0900208C190020D8190020E829002052
:1032D00080B500AF0E4B9B6C002B16D00120FFF782
:1032E000DBFD0B4B9B6C013B094A9364084B5B6C09
:1032F0000133074A5364064B5B6C0F2B02D9044B16
:1033000000225A640120FFF7ADFD00BF80BD00BF61
:103310008C19002080B582B000AF03460A46FB71CD
:103320001346BB71354B9B6C0F2B61D8344B1B780C
:10333000012B0ED1334B1B78FC2B01D9002358E015
:103340002E4B1B6C2D4A52F823302E4A12781A70DD
:1033500013E02B4B5B78002B07D1284B1B6C274AC3
:1033600052F8233000221A7007E0244B1B6C234ACA
:1033700052F82330224AD27C1A70204B1B6C1F4A11
:1033800052F82330581D1D4B1B6C1C4A52F8233039
:103390001B781A461C4900F041FF184B1B6C174A5A
:1033A00052F82330FA795A70144B1B6C134A52F8B6
:1033B0002330164AD2F8482552B29A700F4B1B6C34
:1033C0000E4A52F82330BA791A710C4B1B6C013338
:1033D0000A4A1364094B1B6C0F2B02D9074B0022BE
:1033E0001A64064B9B6C0133044A9364012300E08A
:1033F000002318460837BD4680BD00BFE8290020DD
:1034000064090020342B0020362B002000100040DF
:1034100080B400AF084B0422C3F81025064B0022ED
:10342000C3F80825044B40F20222C3F8002200BF73
:10343000BD465DF8047B704700A0004080B400AF3B
:10344000124B134AC3F86025104B124AC3F8642587
:103450000E4B114AC3F868250C4B104AC3F86C2573
:103460000A4B0F4AC3F87025084B0E4AC3F874255F
:10347000064B0D4AC3F87825044B0C4AC3F87C254B
:1034800000BFBD465DF8047B704700BF00F00140FF
:103490000011004000A000400411004004A00040C2
:1034A00040A100401010004044A100400010004026
:1034B00080B582B000AF674B01221A60664B5B6C2F
:1034C000654A52F82330654A1360644B1B68DB7809
:1034D000002B06D0624B1B7D83F00103DBB2002B77
:1034E00001D0012300E00023FB71FB7903F001030D
:1034F000FB715B4B1B78002B02D0012B2ED078E0A8
:10350000584B1B68554A1268127810469847534B1F
:103510001B681A79544B1A70534B00225A704F4B48
:103520001B68591D4D4B1B681B781A464F4800F00D
:1035300075FE4F4B40F21B12C3F800224C4B112278
:10354000C3F80423464BDB891A464A4B1A604A4BA0
:103550004A4A1A604A4B02221A704AE03F4B1B68E3
:103560001A78414B1A703D4B1B681B795B00DAB22D
:103570003D4B5A703C4B5B785AB2FB7983F00103A8
:10358000DBB25BB213435BB2DAB2374B5A70334BE8
:103590001B68591D314B1B681B781A46334800F0D5
:1035A0003DFEFB79002B14D0314B40F21B12C3F8C7
:1035B00000222F4B1122C3F80423294BDB891A4622
:1035C0002C4B1A602C4B2D4A1A602D4B02221A707C
:1035D0000EE0274B40F21312C3F80022244B1022B6
:1035E000C3F80423244B274A1A60254B01221A7082
:1035F00000BF1F4A194B1B685B78C2F82C351C4A68
:10360000164B1B685B78194601238B40C2F8303596
:10361000174B1D4AD27CC3F80825154B124AC3F834
:1036200004250120FFF76CFC0120FFF71BFC104B69
:103630000022C3F804210E4B0022C3F808210C4BD2
:103640000022C3F810210A4B01221A6000BF08377C
:10365000BD4680BD6C2C00208C1900205C09002028
:10366000640900207C2C0020342A0020362A002007
:1036700000100040682C0020742C002061370000EE
:10368000590900201D3700007003002080B500AFED
:103690001F4BD3F80031002B0AD01D4BD3F8043355
:1036A00003F00103002B03D0194B0022C3F80021C3
:1036B000174BD3F80C31002B11D0154BD3F8043332
:1036C00003F00803002B0AD0114B0022C3F80C2191
:1036D000104B1B68002B02D00E4B1B6898470C4BFD
:1036E000D3F81031002B11D0094BD3F8043303F079
:1036F0001003002B0AD0064B0022C3F81021064B02
:103700001B68002B02D0044B1B68984700BF80BD8C
:1037100000100040782C0020742C002080B500AFF1
:103720000C4B1B6843F001030A4A1360FFF7D0FDFE
:10373000094B9B6C002B06D1084B00221A701420F9
:10374000FFF7C4FB04E01420FFF7C0FBFFF7B0FE57
:1037500000BF80BD342C00208C19002059090020A6
:1037600080B500AF1E4B40F21312C3F800221D4A71
:103770001D4B1B68C2F840351A4B1C4A9289823A8D
:10378000C3F84425174B0122DA60164B0022C3F818
:103790004021144B0022C3F84421154B4FF4E05252
:1037A000C3F80425124B4FF40052C3F808250C4B04
:1037B0000022C3F80C210D4B1B78002B03D10D4BBD
:1037C0001B6800209847064B0B4AC3F804250B4B97
:1037D0000B4A1A600B4B03221A7000BF80BD00BF5A
:1037E0000010004000A00040702C00206409002060
:1037F00000F001407C2C0020342B0020742C002091
:10380000093800005909002080B500AF504B4FF433
:10381000E052C3F808254F4BD3F80C31002B4BD0A6
:103820004C4BD3F80034002B46D04B4B01225A604E
:10383000474B4FF40052C3F80825484B1B6843F030
:103840000103464A1360464BDB891A46454B1B6809
:10385000D31A0133444A1360FFF73AFD404B1B78FB
:10386000002B14D0414B1B78002B10D0394BD3F8D0
:103870002C35DBB200211846FFF74CFD0346002B28
:1038800005D0364B1B6843F00403344A1360384BB1
:103890009B6C002B03D0324B1B7C012B06D1354B8C
:1038A00000221A701420FFF711FB4EE01420FFF7DE
:1038B0000DFBFFF7FDFD48E02A4B1B685A1E294906
:1038C0000A60002B1AD1244B01225A60204B4FF47E
:1038D0000052C3F80825224BDB8901331A46224BDC
:1038E0001A601E4B1B6843F002031C4A1360214BF5
:1038F00000221A701420FFF7E9FA26E0154B40F277
:103900001B12C3F800221C4B1B681C4A1268127859
:10391000104698470F4B1A4AC3F80425194B1A4A08
:103920001A60144B02221A700B4B01221A60084BCA
:103930004FF40052C3F80425074BD3F84431002B51
:1039400003D0044B01221A60FFE700BF80BD00BF17
:1039500000F001400010004000A00040342C002086
:1039600064090020682C00206C2C0020342B0020DF
:103970008C190020590900207C2C00205C090020B3
:10398000342A0020742C00206137000080B500AF7D
:10399000144B40F21312C3F80022134B1B68134A56
:1039A000D27C104698470F4B114AC3F804250D4BA3
:1039B0000022C3F810210B4B01221A6100BF094BF2
:1039C000D3F81031002BFAD0064B0022C3F8102197
:1039D000044B40F21712C3F80022024B01225A6036
:1039E00000BF80BD001000407C2C00206409002036
:1039F000342B002080B582B000AF0023FB71002380
:103A0000BB7101237B71774BD3F80034002B02D1BB
:103A1000FFF7BCFFE3E0744B9B6C0F2B02D9FFF761
:103A2000B5FFDCE06F4BD3F808349B006F4A1344BA
:103A30003B606C4BD3F80C343A68128893420BD13C
:103A40006B4B5B785B08DAB23B689B789A4203D198
:103A50000123BB7100237B71654B5B785B08DAB295
:103A60003B689A705F4BD3F80C349AB23B681A806B
:103A7000604B1B7D83F00103DBB2002B05D15C4B57
:103A80005B7803F00103002B01D10123FB71FB796B
:103A9000002B00F08980534B40F21B12C3F8002228
:103AA000544B1B78002B62D0012B6CD1524B9B6C7A
:103AB000002B4DD0504B5B6C4F4A52F823305B7853
:103AC0001A46484BD3F808349A4241D13B68DB7818
:103AD000002B1CD0BB7983F00103DBB2002B16D086
:103AE000454B5B6C0133444A5364434B5B6C0F2B77
:103AF00002D9414B00225A643F4B9B6C013B3E4A2A
:103B000093643E4B1B6843F001033C4A13603B68DF
:103B10000122DA70384B5B6C374A52F82330384A4E
:103B20001360384B1B68364A126812781046984763
:103B3000334B1B681A78344B1A70314B1B68591D74
:103B40002F4B1B681B781A46304800F067FB09E0D2
:103B50003B680022DA702B4B1B68002098472A4BE9
:103B600000221A70224B5A78274B5A700BE0254BD3
:103B70001B68002098471E4B1A78234B1A70224B63
:103B800000225A7000BF224B05221A70154A154BAD
:103B9000D3F80834C2F82C35124B1B4AC3F804255D
:103BA0001C4B1D4A1A6001E0FFF7F0FE7B79002BE9
:103BB00015D00C4BD3F80834DAB23B689B78194621
:103BC0001046FFF7A7FB0346002B08D00B4B1B68E2
:103BD00043F00403094A13601420FFF777F908370C
:103BE000BD4680BD00100040E8290020442C002084
:103BF000342B0020640900208C190020342C002074
:103C00005C0900207C2C0020342A0020362A002069
:103C100059090020742C00201D3C000080B500AF25
:103C20000B4B40F21712C3F800220A4B1B680A4ADA
:103C3000D27C10469847064B084AC3F80425084B27
:103C4000084A1A60084B04221A7000BF80BD00BFEA
:103C5000001000407C2C002064090020342B002040
:103C6000742C0020F53900005909002080B584B07B
:103C700000AF78607B68002B01D10E2343E0244B1A
:103C80001B78002B07D000F051F8F860FB68002B80
:103C900001D0FB6837E07B685B681E4A136018221E
:103CA00079681D4800F0BAFA1C4B00221A602422E1
:103CB00000211B48FCF74CFC092200211948FCF7A5
:103CC00047FCFFF799FAFFF7CBFAFFF7A1FBFFF7E5
:103CD000B5FB114B5B7C03F0030319460120FFF792
:103CE00029F90D4B9B7C03F0030319461420FFF7C1
:103CF00021F91420FFF7B6F80B4B00221A70044B81
:103D000001221A70002318461037BD4680BD00BF3F
:103D1000580900206009002064090020342C00208C
:103D2000442C0020382C00205909002080B500AF19
:103D30000E4B4FF47052C3F808250D4B00221A7039
:103D4000FFF770FA242200210A48FCF701FC09223F
:103D500000210948FCF7FCFB1420FFF79DF8074BF6
:103D60000322C3F800220023184680BD00F0014062
:103D700059090020442C0020382C0020001000405D
:103D800080B584B000AF1C4B1B687B6007F1080353
:103D9000184600F087F9F860FB68002B27D1174B15
:103DA0001B68002B23D0BB6803F00103002B06D057
:103DB00000233B70114B1B683A4610469847BB687E
:103DC00003F00203002B06D001233B700B4B1B6852
:103DD0003A4610469847BB6803F00403002B06D010
:103DE00002233B70054B1B683A461046984700BFBC
:103DF0001037BD4680BD00BF6C2C0020600900203C
:103E000080B582B000AF7860454B1B7883F001032A
:103E1000DBB2002B01D008237EE07B68002B01D1B0
:103E20000E2379E07B681B78002B0DD07B681B7814
:103E3000FC2B09D83B4B1B78002B07D17B681A78E9
:103E4000384BDB7C9A4201D9092365E0364B9B6CE9
:103E50000F2B01D904235FE0324B5B78002B0CD190
:103E60007B68DB78002B08D02E4B1B7D83F0010391
:103E7000DBB2002B01D006234EE00120FFF70CF847
:103E8000294B1B6C284A52F8233040F20112796802
:103E9000184600F0C3F97B685B7819467B685B784D
:103EA0001A46224B9B5C01335A4203F0030302F093
:103EB000030258BF5342DAB21C4B5A541A4B1B6CC4
:103EC000194A52F823307A6852781146174A525CE0
:103ED0001A71154B1B6C0133134A1364124B1B6C84
:103EE0000F2B02D9104B00221A640F4B9B6C01332D
:103EF0000D4A93640120FEF7B5FF0A4B5B78002B57
:103F000009D1084B1B7C002B05D1094B1B78002BDA
:103F100001D1FFF7CDFA002318460837BD4680BD12
:103F200058090020640900208C190020382C00203A
:103F30005909002080B582B000AF78602E4B1B7805
:103F400083F00103DBB2002B01D0082350E07B6833
:103F5000002B01D10E234BE0284B9B6C002B01D191
:103F6000052345E00120FEF797FF244B5B6C234AB5
:103F700052F823301A787B681A70204B5B6C1F4A0A
:103F800052F823305A787B685A701C4B5B6C1B4A82
:103F900052F8233093F902207B689A70174B5B6CC0
:103FA000164A52F823301A797B681A717B68581DBB
:103FB000124B5B6C114A52F82330591D7B681B78F9
:103FC0001A4600F02BF90D4B5B6C01330B4A53641E
:103FD0000A4B5B6C0F2B02D9084B00225A64074B2B
:103FE0009B6C013B054A93640120FEF73BFF0023D5
:103FF00018460837BD4680BD58090020E829002032
:1040000080B500AF214B1B78002B01D011233BE082
:104010001F4B4FF0FF32C3F808231D4B0022C3F89B
:1040200010211C4B1C4A1A60194B40F21712C3F89E
:104030000022174B1022C3F80423144B04221A70D9
:10404000134B164A927CC3F83025114B134AD27C8D
:10405000C3F808250E4B124AC3F804250120FEF7C9
:104060004FFF0120FEF7FEFE094B0022C3F804219A
:10407000074B0022C3F80821054B0022C3F810218A
:10408000034B01225A600023184680BD59090020C5
:1040900000100040742C0020F5390000700300204F
:1040A000342B002080B582B000AF78600F4B1B78B6
:1040B00083F00103DBB2002B01D0082312E07B6800
:1040C000002B01D10E230DE00120FEF7E5FE084B89
:1040D0001A687B681A60064B00221A600120FEF7FE
:1040E000C1FE002318460837BD4680BD5809002090
:1040F000342C002080B582B000AF78600B4B1B7869
:10410000002B01D011230DE07B68002B01D10E2381
:1041100008E004227968064800F080F80120FEF7E4
:104120009FFF002318460837BD4680BD590900206F
:104130007003002080B582B000AF78600B4B1B7815
:10414000002B01D011230DE07B68002B01D10E2341
:1041500008E004227968064800F060F80220FEF7C3
:104160007FFF002318460837BD4680BD590900204F
:104170007403002080B582B000AF78600B46FB70FE
:10418000144B1B78002B01D011231FE07B68002B00
:1041900001D10E231AE0FB78082B01D9072315E083
:1041A000FB781A4679680C4800F038F80B4AFB781F
:1041B0001374FB78C3F10803FF2242FA03F3DAB267
:1041C000064B9A740420FEF74BFF0023184608376D
:1041D000BD4680BD590900207803002070030020EF
:1041E0000649074A074B9B1A03DD043BC858D050C9
:1041F000FBDCFCF7D9F9FCF739F900006059010044
:104200000000002090030020FEE7FEE7FEE7FEE747
:10421000FEE7FEE7FEE7FEE7FEE7FEE710B5431E1A
:104220000A44914200D110BD11F8014B03F8014F2F
:10423000F7E70000F8B500BFF8BC08BC9E46704721
:10424000F8B500BFF8BC08BC9E46704700000020CF
:10425000FF004C617474696365006943456375626E
:10426000653220323031372E30312E323739313409
:1042700000506172743A20694345354C50344B2DDF
:10428000434D333600446174653A204A756E2032DE
:1042900020323031372031363A34393A353200FF66
:1042A000007EAA997E510001059200206202B3723D
:1042B00000B08200001100010100000000000000B9
:1042C000000000001000000000000040000000009E
:1042D00000010000000000000400000000000010C9
:1042E000000000000000401000000000000040003E
:1042F00000000000000000000100000000000004B9
:10430000000000000000100000000000004000005D
:10431000000000000000000000000200000000009B
:1043200000080000000000002000000000000080E5
:10433000000000000000000000000000000000007D
:104340000000000000000000080000000000002045
:1043500000000000000080000000000002000000DB
:104360000000000800000000000000000000000045
:10437000000000000000000000000000000000003D
:1043800000000000000000000000000000000040ED
:1043900000000000100000000000004000000000CD
:1043A000000000000000000000000000000000000D
:1043B00000000000000000000000000000000000FD
:1043C00000000000000000000000000000000000ED
:1043D00000000000000000000000000000000000DD
:1043E00000000000000000000000000000000000CD
:1043F00000000000000000000000000000000000BD
:1044000000000000000000000000000000000000AC
:10441000000000000000000000000000000000009C
:10442000000000000000000000000000000000008C
:10443000000000000000000000000000000000007C
:104440000020020000800000800800020000000040
:10445000000000000000000000000000000000005C
:10446000000000000000000000000000000000004C
:10447000000000000000000000000000000000003C
:10448000000000000000000000000000000000002C
:104490000000000000000000001C003C00000000C4
:1044A000300070000000000000000000000000006C
:1044B00000000000000000000000000000000000FC
:1044C00000000000000000000000000000000000EC
:1044D00000000000000000000000000000000000DC
:1044E0000000000240000000000000010000000089
:1044F00000000000000000000000000000000000BC
:1045000000000000000000000000000000000000AB
:10451000000000000000000000000000000000009B
:10452000000000000000000000000000000000008B
:10453000000000000000000000002000000000005B
:10454000000000000000000000000000000000006B
:10455000000000000000000000000000000000005B
:10456000000000000000000000000000000000004B
:10457000000000000000000000000000000000003B
:10458000000000000000000000000000000000002B
:104590000000000000000003820000000000800016
:1045A0000000000003000000000000040000000004
:1045B000000000000000000000000000000001807A
:1045C00000000000000000000000000000000000EB
:1045D00000000000000000000000000000000000DB
:1045E00000000000000000000000000000000000CB
:1045F00000000000000000000000000000000000BB
:1046000000000000000000000000000000000000AA
:10461000000000000000000000000000000000009A
:10462000000000000000000000000000000000008A
:104630000000000000000000000000000000000179
:10464000C00000000B0005400003C0014000000056
:10465000000000000000000000000000000000005A
:10466000000000000000000000000000000040000A
:10467000000000000000000000000000000000003A
:10468000000000000000000000000000000000002A
:10469000000001000000100000040000001C0100E8
:1046A00020000400000000000000000000000000E6
:1046B00000000000000000000000000000000000FA
:1046C000000000000C0000000000000000000000DE
:1046D00000000000000000000000000000000000DA
:1046E00000000000000000000000020000000000C8
:1046F0000000000000000200000000004000000078
:1047000000000000000000000000000000000000A9
:104710000000000000000000000000000000000099
:104720000000000000000000000000000000000089
:104730000000000000000000000000000000000178
:10474000001C000000000400000000010024000024
:104750000000040001000000001000040000000040
:104760000000000000000000000000000000000049
:104770000000000000000000000000000000000039
:104780000000000000000000000000000000000029
:1047900000000000000000000040000000000001D8
:1047A0000000000020400000004001010000000067
:1047B00000000400000000000000000000000000F5
:1047C00000000000000000000000000000000000E9
:1047D00000000000000000000000000000000000D9
:1047E00000000000000000000000000002000000C7
:1047F0000000000800180000020006000000000091
:104800000080000000000000010000000000000027
:104810000000000000000000000000000000000098
:1048200000000000000C302000000000000000002C
:104830000000000000000000000000000000000078
:10484000000000000000003FD00800000000000051
:104850000000003FD0000140046100800000000023
:10486000000000000000418F040000000100000073
:10487000000000000000000000000000C300000075
:104880000000000000000000000000000000000028
:104890000000000000000000000000900003FC0089
:1048A00001000000000000100003FC0000000202F4
:1048B000A000000000000000000000002000F04008
:1048C000000000A000000000000000000000000048
:1048D00000000C302000000000000000000000007C
:1048E00000000000000000000000000000000000C8
:1048F000800000003FD00A0000200000800000007F
:104900003FD00A000479C996C0000058000000009A
:10491000A001C2000000028005800000000000002D
:10492000000000000000000000C3000000000000C4
:104930000000000000000000000000000000000077
:104940000000000000000800000003FC00800004DC
:1049500000000800100003FC0080000400896400CF
:10496000000000000000080000000000002000001F
:10497000B000000000000000000000000000000C7B
:1049800030200000000000000000000000000000D7
:104990000000000000000000000000000000000017
:1049A000000000000000000000000000003FD00DEB
:1049B0000000606896C0000059A0000000000200DE
:1049C0003F8F3408000000000000000000000000DD
:1049D000000000000000C300000000000000000014
:1049E00000000000000000000000000000000000C7
:1049F00000000000000000000000000000000000B7
:104A000000000003FC00500000009964000000005A
:104A100000000000000401F9F24100000000000065
:104A20000000000000000000000000000C3020002A
:104A30000000000000000000000000000000000076
:104A40000000000000000000000000000000000066
:104A5000000000000001000000000000000156619D
:104A60004996C00000800000000000000000000027
:104A70000000000100000000000000000000000035
:104A8000000000C300000000000000000000000063
:104A90000000000000000000000000000000000016
:104AA00000000000000000000000000030000000D6
:104AB00000000000080002896400000500000000FA
:104AC00000000000000000000000A0000000000046
:104AD0000000000000000000000C3020000000007A
:104AE00000000000000000000000000000000000C6
:104AF00000000000000000000000000000000000B6
:104B0000006010000000000000040000006996C072
:104B1000000000A36028000000000000000000006A
:104B20000000000000000000000000000000000085
:104B3000C3000000000000000000000000000000B2
:104B40000000000000000000000000000000000065
:104B50000000000000400002000000000000000013
:104B6000C0000200C96400000010080280000000BC
:104B70000000000000000000000000000000000035
:104B80000000000000000C302000000000000000C9
:104B90000000000000000000000000000000000015
:104BA00000000000000000000000000020000000E5
:104BB0000000000603C000002005E996C0000000C8
:104BC0000D282000000000200A5400000000000012
:104BD00000000000000000000000000000C3000012
:104BE00000000000000000000000000000000000C5
:104BF00000000000000000000000000000000000B5
:104C0000000000C0000000000000003C80000042E6
:104C1000008964000000005B800000000003C05AAF
:104C20004000000000000000000000000000000044
:104C30000000000C30200000000000000000000018
:104C40000000000000000000000000000000000064
:104C50000000000000000000000000000000000054
:104C6000000000000006006996C00000000000007F
:104C70000040000000AF04000000001E940000008F
:104C800000000000000000000000C3000000000061
:104C90000000000000000000000000000000000014
:104CA0000000000000000000000000000000000004
:104CB0000000000000000000000000000000D964B7
:104CC00008028D000000000C00000000F040000011
:104CD0000000414000000000000000000000000053
:104CE0000C30200000000000000000000000000068
:104CF00000000000000000000000000000000000B4
:104D0000000000000C000000000000000000000097
:104D10000C0006016996C000000000000000C00001
:104D20006040000000000000961490800000000029
:104D300000000000000000C30000000000000000B0
:104D40000000000000000000000000000000000063
:104D50000000000000000000000000400000000013
:104D600000000000000000800000028964000000D4
:104D7000000000000800002000000000001007C232
:104D8000044000000000000000000000000C302083
:104D90000000000000000000000000000000000013
:104DA0000000000000000000000000000000000003
:104DB00000081000000000000000000000000000DB
:104DC00061C996C00000D801BC00000000000000CE
:104DD00000000000000000000000000000000000D3
:104DE00000000000C3000000000000000000000000
:104DF00000000000000000000000000000000000B3
:104E000000000000000000000100000000000000A1
:104E1000000000000000020099644000030017C871
:104E20000000000000000000000000000000000082
:104E3000000000000000000000000C302000000016
:104E40000000000000000000000000000000000062
:104E500000000000000000000000000000000A1038
:104E6000000000028000000000000A0000006896B8
:104E7000C02800508B610008000000000000028084
:104E80000000000000000000000000000000000022
:104E900000C300000000000000000000000000004F
:104EA0000000000000000000000000000000000002
:104EB00000000000008101C0000020000000000090
:104EC0000080000202C964020005005800000008CA
:104ED00000000000002000000000000000000000B2
:104EE000000000000000000C302000000000000066
:104EF00000000000000000000000000000000000B2
:104F000000000000000000000000000C0000000095
:104F100003000000FB2818040000054996C00000AB
:104F200080112828000000000000000000000000A0
:104F30000000000000000000000000000000C300AE
:104F40000000000000000000000000000000000061
:104F50000000000000000000000000000000000051
:104F60000000C100000000000000037D8000400040
:104F7000020299640000010A04028000000000009F
:104F80000000000000000000000000000000000021
:104F9000000000000C3020000000000000000000B5
:104FA0000000000000000000000000000000000001
:104FB00000000000000000000000000000000008E9
:104FC00008000000000020006896C000008000007B
:104FD00000000000000000000000000000000000D1
:104FE0000000000000000000000000C300000000FE
:104FF00000000000000000000000000000000000B1
:10500000000000000000000000000000000000019F
:105010000000000000005000000000000040029965
:105020006400000500000000000000000000000017
:105030000000000000000000000000000000000070
:10504000000C302000000000000000000000000004
:105050000000000000000000000000000000000050
:10506000000000000000000001C020000008000057
:10507000000000060368F0400000001DA88000004A
:10508000140000000000000000000000000000000C
:105090000000000000000000C3000000000000004D
:1050A0000000000000000000000000000000000000
:1050B00000000000000000000000000000000000F0
:1050C000000000010000000000A0002400F4000027
:1050D0000009134000000000000000000000000074
:1050E00000000008000000000000000000000C307C
:1050F0002000000000000000000000000000000090
:10510000000000000000000000000000000000009F
:105110000000000000000000000800000000040083
:1051200000000000000000001F70400C00000000A4
:10513000000000000000000000000000000000006F
:105140000000000000C3000000000000000000009C
:10515000000000000000000000000000000000004F
:10516000000000000000000000000000000000003F
:105170009000000000C000000000000000000C943F
:105180000A80400000000000000000000000000055
:1051900000000000000000000000000C30200000B3
:1051A00000000000000000000000000000000000FF
:1051B00000000000000000000000000000000000EF
:1051C000000070000000000EDB281000002000002E
:1051D0000000100018100000000000000000000097
:1051E00000000007BC1000A000000000000000004C
:1051F0000000C300000000000000000000000000EC
:10520000000000000000000000000000000000009E
:1052100000000000000000004400000000000D7EBF
:105220004080000040000000030000080000000073
:105230000000000000000000000043C30004000064
:1052400000000000000000000C3020000000000002
:10525000000000000000000000000000000000004E
:10526000000000000000000000000000040000003A
:1052700000000000000000000C0000000000000022
:105280000001836401000000000000000300000131
:10529000000000000000000000000000000000C34B
:1052A00000000000000000000000000000000000FE
:1052B00000000000000000000000000000000000EE
:1052C000000000400000000000009000000000808E
:1052D0000000000000000000105A84080040000098
:1052E000000000200000E0000000000000000000BE
:1052F00000000000000C3020000000000000000052
:10530000000000000000000000000000000000009D
:105310000000000000000000000800000000000085
:1053200000000000000280000000000000000000FB
:10533000000000000000000000000000000000006D
:10534000000000000000000000000000C30000009A
:10535000000000000000000000000000000000004D
:10536000000000000000000000000000000000003D
:105370000100000000000000000000000400000028
:10538000000000000000000000000000000000001D
:10539000000000000000000000000000000000000D
:1053A00000000C30200000000000000000000000A1
:1053B00000000000000000000000000000000000ED
:1053C0002000000000000A000000000000000000B3
:1053D00000000000000000000028000000000000A5
:1053E000A0000001CF0402800000000000000000C7
:1053F000000000000000000000C3000000000000EA
:10540000000000000000000000000000000000009C
:10541000000000000000010000000000008003C048
:105420000000000000C000000000000000000000BC
:105430000000000000000000000010F0400000002C
:105440000000000000000000000000000000000C50
:1054500030200000000000000000000000000000FC
:10546000000000000000000000000000000000003C
:1054700000000000040000000000401E00000000CA
:10548000000000000000100000E0000000C0000765
:105490008000000300058000000000000000000004
:1054A000000000000000C300000000000000000039
:1054B00000000000000000000000000000000000EC
:1054C000000000000000000000000080000000005C
:1054D00000F0F000000000000000000003000710D2
:1054E0000000000400004000000030000000000048
:1054F0000000000000000000000000000C30200050
:10550000000000000000000000000000000000009B
:10551000000000000000000000000000000000008B
:10552000000000000000000000000000000000007B
:105530000000000002000000000000000000000069
:1055400000800000000000000000000000000000DB
:10555000000000C300000000000000000000000088
:10556000000000000000000000000000000000003B
:10557000000000000000000000000000000000002B
:1055800000000000000000000000005000000000CB
:10559000000000000000000000000000000000000B
:1055A0000000000000000000000C3020000000009F
:1055B00000000000000000000000000000000000EB
:1055C00000000000000000000000000000000000DB
:1055D00020C020000000D28208000000000000006F
:1055E000010000002BC1800000000000000000004E
:1055F00000000000000000000000000000000000AB
:10560000C3000000000000000000000000000000D7
:10561000000000000000000000000000000000008A
:1056200000000000000000020000080009AC0000BB
:1056300000000000000000280000003C10000000F6
:105640002C0000000000000000000000000000002E
:105650000000000000000C302000000000000000EE
:10566000000000000000000000000000000000003A
:10567000000000000000000000000000000000002A
:10568000000000000000000000000000000000001A
:105690001073C18000000040000000000000000006
:1056A00000000000000000000000000000C3000037
:1056B00000000000000000000000000000000000EA
:1056C00000000000000000000000000000000000DA
:1056D00000000000000000000000000000000000CA
:1056E0000000000000000A043C1000200020000020
:1056F00000000000000000000000000000000000AA
:105700000000000C3020000000000000000000003D
:105710000000000000000000000000000000000089
:105720000000004000000000210000000000000018
:105730000000000000000000000000000000000069
:1057400000000000000A540000000E0000000000ED
:1057500000000000000000000000C3000000000086
:105760000000000000000000000000000000000039
:105770000000000000000000080000000000000021
:10578000000000000A00000000000000000000000F
:105790000000000000000000000003405A4000002C
:1057A00001000000000000000000000000000000F8
:1057B0000C3020000000000000000000000000008D
:1057C00000000000000000000000000000000000D9
:1057D00000000000040000000000000000000000C5
:1057E0000000000000000030000000000000C000C9
:1057F000000000000300200002BC120000000000B6
:1058000000000000000000C30000000000000000D5
:105810000000000000000000000000000000000088
:105820000000000000000000000000400000000038
:105830000000000000000000000000000002000066
:105840000000000008000000000000200400000329
:10585000C12000000000000000000000000C30200B
:105860000000000000000000000000000000000038
:105870000000000000000000000000100000000018
:105880000008100000000000070A000000080000E7
:1058900004000000000000000000000000004000C4
:1058A000000000001A023C10000000000000000090
:1058B00000000000C3000000000000000000000025
:1058C00000000000000000000000000000000000D8
:1058D00000000000000000000100000000000009BE
:1058E0000000000000000380000000000000000035
:1058F00000000000280000000000000043C1040078
:10590000000000000000000000000C30200000003B
:105910000000000000000000000000000000000087
:1059200000000000000000000000000000000A105D
:1059300000000002800700D728180A0000000000BD
:105940000000000000000000A00000018F0402839E
:1059500000000000000A000E00000000000000002F
:1059600000C3000000000000000000000000000074
:105970000000000000000000000000000000000027
:105980000000000000810000000020000805658084
:1059900000C000000000000003A0000000000000A4
:1059A000340000F0400000000000000080202000D3
:1059B000000000000000000C30200000000000008B
:1059C00000000000000000000000000000000000D7
:1059D00000000000000000000000000450803800BB
:1059E0000300078A936050040080001CF040000010
:1059F0008000283C004001400000000300058000BA
:105A00000000000200000000000000000000C300D1
:105A10000000000000000000000000000000000086
:105A20000000000000000000000000000000000076
:105A30000000C1100400000000710BE9400140109B
:105A400000000F0080000F000003C24400000000AF
:105A50000000300000000000000000000000000016
:105A6000000000000C3020000000000000000000DA
:105A70000000000000000000000000000000000026
:105A80000000000000000000001000000000000FF7
:105A900080000000000000000CF04000000000004A
:105AA000000000000601AF040010201A02BC18001C
:105AB0000006000000000000000000C3000000001D
:105AC00000000000000000000000000000000000D6
:105AD00000000000000000000000000000000001C5
:105AE0000000000000005800000000000000000F4F
:105AF0000000000000000000000A000010F040005C
:105B000005000003C10000080000000000000000C4
:105B1000000C302000000000000000000000000029
:105B20000000000000000000000000000000000075
:105B3000000000000000408078C00000001AFAA8B1
:105B40005000002000000000028000000000000063
:105B500000000000000000000007BC100000000072
:105B60000000000000000000C30000000000000072
:105B70000000000000000000000000000000000025
:105B80000000000000000000000000000A00040205
:105B9000040000000B2C40040015C00000000010A1
:105BA00000000000000000000000000000000000F5
:105BB00003C10400024000000000000000000C309F
:105BC00020000000000000000000000000000000B5
:105BD00000000000000000000000000000000000C5
:105BE00000000010000000001400013F2818001001
:105BF0001C00000000004000000000000300000046
:105C000000000004000000000000100002DBF36848
:105C10000000000000C300000000000000000000C1
:105C20000000000000000000000000000000000074
:105C30000000000000000000000001C000000200A1
:105C4000D0F9A204000000200000000004090000B8
:105C500000000018000000000000400000000000EC
:105C60000000003C8D3700000000000C30200000D8
:105C70000000000000000000000000000000000024
:105C80000000000000000000000000000000000014
:105C900001400000000C0380962050001000001E00
:105CA000F040004000C000000001000000000000C3
:105CB00000000800000000000000000000000000DC
:105CC0000000C30000000000000000000000000011
:105CD00000000000000000000000000000000000C4
:105CE00000000000000000000000000000080BB9E8
:105CF0004080010800010F001000001000000000AB
:105D00000000000000000000010000000000000092
:105D100000000000000000000C3020000000000027
:105D20000000000000000000000000000000000073
:105D30000000000000000000000000000C00400017
:105D400000000008000000000C00400000000000FF
:105D5000000003B94006C0000000AF0403100000BB
:105D600006BC104C0C80000000000000000000C3C6
:105D70000000000000000000000000000000000023
:105D80000000000000000000000000000000000013
:105D9000000000400800000000009000000000012A
:105DA0001803C000000004000004140008110000E3
:105DB00000F04022C0D00043C1008110024000002A
