:1000000000000120494200007142000073420000DC
:1000100075420000774200007942000000000000B5
:100020000000000000000000000000007B42000013
:100030007D420000000000007F420000814200007D
:10004000834200005528000083420000951B0000F9
:100050008342000083420000791E000083420000BA
:10006000834200008342000083420000834200007C
:10007000834200008342000083420000834200006C
:10008000834200008342000083420000834200005C
:100090003D2F000083420000114200008342000017
:1000A000834200008342000083420000834200003C
:1000B00083420000834200000000000000000000B6
:1000C000834200008342000083420000834200001C
:1000D00083420000834200008342000000000000D1
:1000E0000000000000000000000000000000000010
:1000F0000000000000000000000000000000000000
:1001000000000000000000000000000000000000EF
:1001100000000000000000000000000000000000DF
:1004000010B5054C237833B9044B13B10448AFF34E
:1004100000800123237010BD9C110020000000000B
:1004200028430000084B10B51BB108480849AFF33A
:1004300000800848036803B910BD074B002BFBD0B0
:10044000BDE81040184700BF00000000284300002E
:10045000A01100209801002000000000154B002B87
:1004600008BF134B9D46A3F5803A00218B460F46EB
:100470001348144A121A00F065F80F4B002B00D0F5
:1004800098470E4B002B00D0984700200021040015
:100490000D000D48002802D00C48AFF3008000F09A
:1004A0002BF82000290000F02BFC00F011F800BF11
:1004B0000000080000000120000000000000000013
:1004C0009C1100200C1F0020000000000000000014
:1004D00008B5074B044613B10021AFF30080054B6C
:1004E0001868836A03B19847204600F033F800BFCC
:1004F00000000000B842000070B50E4B0E4CE41A2C
:10050000A41000251E46A54204D056F82530984771
:100510000135F8E703F0C2FE084C094BE41AA410B9
:1005200000251E46A54204D056F8253098470135CF
:10053000F8E770BD90010020900100209401002098
:100540009001002002440346934202D003F8011BAD
:10055000FAE77047FEE700BFBFF34F8F0549054B31
:10056000DB6803F4E062044B1343CB60BFF34F8FAF
:1005700000BFFDE700ED00E00400FA05014B024A70
:100580001A607047600000200090D00308B500F0AA
:1005900027F90346002B02D0844B854A1A6000F0ED
:1005A0003BF90346002B06D0824A834B1B6803F4B9
:1005B00060435B0B136000F05BF90346002B05D032
:1005C0007E4A7E4BDB6823F08073D36000F06CF9C9
:1005D0000346002B0ED04FF080430022C3F80C21BD
:1005E0004FF080430022C3F810214FF080430022D7
:1005F000C3F8382500F084F90346002B02D0704B75
:1006000003221A6000F098F90346002B0BD06D4BC3
:1006100005221A606C4B01221A606C4B00221A6092
:100620006B4B3F221A6000F0A3F90346002B76D0F3
:10063000684A4FF08053D3F80434C2F82035654A35
:100640004FF08053D3F80834C2F82435614A4FF094
:100650008053D3F80C34C2F828355E4A4FF08053EB
:10066000D3F81034C2F82C355A4A4FF08053D3F8DF
:100670001434C2F83035574A4FF08053D3F8183449
:10068000C2F83435534A4FF08053D3F81C34C2F8C3
:100690004035504A4FF08053D3F82034C2F84435E7
:1006A0004C4A4FF08053D3F82434C2F84835494AB5
:1006B0004FF08053D3F82834C2F84C35454A4FF0F8
:1006C0008053D3F82C34C2F85035424A4FF080534F
:1006D000D3F83034C2F854353E4A4FF08053D3F843
:1006E0003434C2F860353B4A4FF08053D3F8383485
:1006F000C2F86435374A4FF08053D3F83C34C2F81F
:100700006835344A4FF08053D3F84034C2F86C3522
:10071000304A4FF08053D3F84434C2F870352E4A33
:100720002D4BD3F8883043F47003C2F88830BFF300
:100730004F8FBFF36F8F4FF01023D3F80032002B91
:1007400005DB4FF01023D3F80432002B2BDA234BB8
:100750000122C3F8042500BF204BD3F80034002B3E
:10076000FAD04FF010231522C3F8002200BF1B4B14
:10077000D3F80034002BFAD04FF010231522C3F821
:10078000042200BF154BD3F80034002BFAD0134BD2
:100790000022C3F8042500BF104BD3F80034002B0F
:1007A000FAD0FFF7D9FEFFF7E9FE08BD74C0074095
:1007B0000DF0ADBA3C05004044020010F0ED00E041
:1007C000A0050040105600408856004018560040D2
:1007D0001456004000C0004000ED00E000E0014081
:1007E0000A4B1B68DBB2062B0DD1094B1B6803F0CB
:1007F0000F03002B07D1074B1B6803F0F003302BCE
:1008000001D1012300E0002318467047E00F00F0FB
:10081000E40F00F0E80F00F0124B1B68DBB2062B70
:100820001DD1114B1B6803F00F03002B17D10F4B89
:100830001B6803F0F003302B01D1012310E00B4BB8
:100840001B6803F0F003402B01D1012308E0074BA4
:100850001B6803F0F003502B01D1012300E00023BB
:1008600018467047E00F00F0E40F00F0E80F00F0CA
:100870000A4B1B68DBB2062B0DD1094B1B6803F03A
:100880000F03002B07D1074B1B6803F0F003302B3D
:1008900001D1012300E0002318467047E00F00F06B
:1008A000E40F00F0E80F00F0124B1B68DBB2062BE0
:1008B0001DD1114B1B6803F00F03002B17D10F4BF9
:1008C0001B6803F0F003302B01D1012310E00B4B28
:1008D0001B6803F0F003402B01D1012308E0074B14
:1008E0001B6803F0F003502B01D1012300E000232B
:1008F00018467047E00F00F0E40F00F0E80F00F03A
:100900000A4B1B68DBB2062B0DD1094B1B6803F0A9
:100910000F03002B07D1074B1B6803F0F003302BAC
:1009200001D1012300E0002318467047E00F00F0DA
:10093000E40F00F0E80F00F00A4B1B68DBB2062B57
:100940000DD1094B1B6803F00F03002B07D1074B98
:100950001B6803F0F003302B01D1012300E00023DA
:1009600018467047E00F00F0E40F00F0E80F00F0C9
:100970000A4B1B68DBB2062B0DD1094B1B6803F039
:100980000F03002B07D1074B1B6803F0F003502B1C
:1009900001D1012300E0002318467047E00F00F06A
:1009A000E40F00F0E80F00F0BFF34F8F0549054B4F
:1009B000DB6803F4E062044B1343CB60BFF34F8F5B
:1009C00000BFFDE700ED00E00400FA0582B00190F1
:1009D0004FF0A042019B012101FA03F3C2F80C354C
:1009E00002B070474FF080430022C3F800214FF05F
:1009F000804301221A6000BF4FF08043D3F80031DA
:100A0000002BF9D0704700BF82B00190019B1B788A
:100A1000012B08D0022B01D0002B05E0034B012253
:100A20001A6000BF00E000BF02B07047D015002080
:100A300030B58FB02C4A09AB106818602B4A08AB50
:100A4000106818602A4A06AB1068516803C3294B26
:100A50006C461D460FCD0FC495E8030084E80300E3
:100A600001238DF80030FA238DF8133001238DF81F
:100A7000083001238DF801301F4B019300238DF8BE
:100A800014300523ADF80E306B46184602F0CEF94F
:100A90000D900D9B002B02D00D9802F085FC09AB48
:100AA000184602F007FC0C900C9B002B02D00C980F
:100AB00002F07AFC08AB184602F01CFC0B900B9B72
:100AC000002B02D00B9802F06FFC06AB18460821F1
:100AD00002F030FC0A900A9B002B02D00A9802F028
:100AE00063FC0FB030BD00BFC4420000C84200002C
:100AF000CC420000D4420000090A000000B585B0D5
:100B00009DE0584B1B68002B2CDD574B1B68574A48
:100B1000D35CDAB2564B1A70534B1B680133524AFE
:100B20001360504B1B68013B4E4A13604E4B1B68D1
:100B30004E4AD35CDAB24E4B5A704B4B1B680133B2
:100B4000494A1360474B1B68013B464A1360464BBA
:100B50001B68B3F5806F02D3434B00221A60414BF0
:100B60001B6805E0424B00221A70414B00225A706C
:100B70000222022300933F483D493F4B00F0A6FE6E
:100B80003E4B1B7819463C4B1A783C4B0B445A7130
:100B90003A4B1B780133DAB2384B1A70374B1B785B
:100BA0001946354B5A78354B0B445A71334B1B78E9
:100BB0000133DAB2314B1A70304B1B78F92B38D92C
:100BC0002F4B1B78DAB22D4B5A712C4802F0F6F9F4
:100BD00002462C4B1A602B4B1B68002B03D04FF0A6
:100BE000FF33039310E0284B1B78DBB2DBB2DBB2A0
:100BF0000133DBB2DAB2244B1A70214B1B78DBB223
:100C00000133DAB21E4B1A700023039307E01B4A2C
:100C1000039B134400225A71039B01330393174B28
:100C20001B781A46039B9A42F1DC144B01221A707E
:100C300014E0114B00221A700F4B00225A70094B1E
:100C40001B68002B3FF75DAF1A2001F005F9034642
:100C5000002B7FF456AF0D4B00221A6005B05DF8F3
:100C600004FB00BFDC150020C0150020C0110020CF
:100C7000B8110020BC420000BC110020640000201C
:100C8000E01500200C160020E1150020CC150020F6
:100C900000B583B00190174B1B78DAB2164B5A712E
:100CA000019BDAB2144B9A72019B1B0ADAB2124B07
:100CB0005A72019B1B0CDAB20F4B1A72019B1B0E6E
:100CC000DAB20D4BDA710C4802F078F9094B1B7857
:100CD000DBB20133DAB2074B1A70084B1B78DBB278
:100CE000DBB2DBB20133DBB2DAB2044B1A7003B011
:100CF0005DF804FBE0150020DC000020E115002079
:100D000000B589B0002307930023039300230693C3
:100D1000002305930023029302F088FCFFF762FE94
:100D2000FFF786FE01F08CF8034683F00103DBB287
:100D3000002B01D001F044F8954B01221A70954B1D
:100D40001B78DAB2924B5A7102F03AFA0190019B89
:100D5000002B02D0019802F027FB079B042B02D145
:100D6000002003F041F88C4B1B68012B40F07D8381
:100D700071E38A4B1B78DBB2DBB2DBB2013BDBB247
:100D8000DAB2864B1A70854B1B78DBB25BB2002B54
:100D900014DC804B1B78DAB2814B5A71804802F028
:100DA0000DF902467F4B1A607A4B1B78DBB2013398
:100DB000DAB2784B1A70794B01221A707A4B1B7891
:100DC00003F00103DBB2002B64D1079B012B0CD194
:100DD0000023069302E0069B01330693724B1B78B7
:100DE0001A46069B9A42F6DC53E06F4B1B785B0871
:100DF000DBB200206D491A4602F02EFF0023069355
:100E00003CE06B4B1B68069A520067490A445179D3
:100E1000684AD154664B1B680133654A1360664BC0
:100E20001B680133644A1360614B1B68069A5200C9
:100E300001325D490A4451795E4AD1545C4B1B68CA
:100E40000133B3F5806F08D3594B00221A605A4B17
:100E50001B680133584A136009E0554B1B68013386
:100E6000534A1360544B1B680133534A1360504B71
:100E70001B68524B1B68069B013306934A4B1B7839
:100E80005B08DBB21A46069B9A42BADCFFF736FED5
:100E900000BFE0E2444B5B79612B00F0DC82424B07
:100EA0005B79712B40F0B2803F4B9B79712B40F006
:100EB000AD803D4BDB79712B40F0A880344B1B7823
:100EC000012B4ED9324B1B78202B4AD8304B1B7844
:100ED000069307E02E4A069B134400225A71069B94
:100EE00001330693069B1F2BF4DD294B21221A7038
:100EF000284B1B78DAB2264B5A71254802F05EF86F
:100F00000246284B1A60274B1B68002B03D04FF07A
:100F1000FF33069310E0214B1B78DBB2DBB2DBB270
:100F20000133DBB2DAB21D4B1A701A4B1B78DBB2FD
:100F30000133DAB2174B1A700023069307E0144A04
:100F4000069B134400225A71069B01330693104BF3
:100F50001B781A46069B9A42F1DC0D4B01221A704F
:100F600053E00B4B1B78202B4FD90A4B1B78DAB27E
:100F7000074B5A71064802F021F80246094B1A60E5
:100F8000084B1B68002B1BD04FF0FF33069328E063
:100F900064000020E0150020D0150020E11500209D
:100FA0008C0000200C160020E4150020EC4200000C
:100FB000C4150020C0110020DC150020C015002041
:100FC000A84B1B78DBB2DBB2DBB20133DBB2DAB2A7
:100FD000A44B1A70A44B1B78DBB20133DAB2A24BDC
:100FE0001A700023069307E0A04A069B13440022D0
:100FF0005A71069B013306939C4B1B781A46069B3D
:101000009A42F1DC994B01221A7024E2984B5B79E9
:10101000122B0FD1964B9B79352B0BD1944BDB794F
:10102000372B07D11720FFF7D1FCC82000F0E6FAD4
:10103000FFF7BAFC8E4B5B79FB2B40F0D3808C4BD7
:101040009B79552B40F0CE80894BDB79AA2B40F061
:10105000C980079B032B00F2BB8001A252F823F04A
:1010600071100000E91000007D110000B7110000B0
:101070008048FFF70DFE804B4FF4F4221A604FF0CA
:1010800080531B69B3F5805F02D07C48FFF700FEF8
:1010900002F050FE03461846FFF7FAFD4FF4FE201B
:1010A000FFF7F6FD4FF4FE231B681846FFF7F0FD2F
:1010B000734802F06BFE724B1B681846012100F06A
:1010C0000DFA6F4802F062FE002002F0F9FD0346BF
:1010D000002B03D06B48FFF7DBFD02E06A48FFF707
:1010E000D7FD012307937DE06848FFF7D1FD604BF2
:1010F0009B7A1A46664B03FB02F25D4BDB7A19467C
:1011000042F2107303FB01F31A44594B1B7B19463F
:101110004FF47A7303FB01F31A44554B5B7B19467A
:10112000642303FB01F31A44514B9B7B19460B4686
:101130009B000B445B0013444D4AD27B1344039342
:101140000398FFF7A5FD039BC3F5F32303F2FC739C
:101150000493049B4F4A934205D84F48FFF798FDEC
:101160000023079307E0049B4C4A13600498FFF7A1
:101170008FFD022307930223079333E04848FFF7CC
:1011800087FD049B0433184602F09AFD0346002BAA
:1011900009D03C48FFF77CFD4FF47A7000F02EFA3E
:1011A0000323079304E03848FFF772FD00230793F9
:1011B0000323079316E03B48FFF76AFD4FF47A706C
:1011C00000F01CFA049B0433184602F00DFE09E0FF
:1011D0003548FFF75DFD079B1846FFF759FD0023D3
:1011E000079300BF224B5B79FB2B67D1204B9B7988
:1011F0009A2B63D11E4BDB79BB2B5FD12B4B00228B
:101200001A60002305932A4B02221A60C82000F0BE
:10121000F5F9012000F086F9134B1B78DAB2254B63
:101220005A71244B01221A72224801F0C7FE0D4B5D
:101230001B78DBB2DBB2DBB20133DBB2DAB2094BD3
:101240001A70094B1B78DBB20133DAB2064B1A7005
:10125000184B00221A72184B1B680133164A136090
:10126000F9E000BFE1150020E01500206400002037
:10127000E41500200000BBBB141000105E51DEC05E
:10128000041F002005D500F004D400F01111BBBBF1
:10129000A0860100B311010011B099B1081F002010
:1012A0002222BBBB3333BBBB04B404B4C81500203B
:1012B000D4150020B4000020D81500206B4B5B79BA
:1012C000FB2B69D1694B9B799A2B65D1674BDB79F5
:1012D000CC2B61D1664B01221A60664B1B680293CE
:1012E000654B1A68029B9A4202D0614B00221A6039
:1012F0005F4B1B68012B27D1604B1B6818465D496B
:1013000002225D4B00F04CF95D4B01221A725D4BDD
:101310001B78DAB25A4B5A71594801F04FFE5A4BBA
:101320001B78DBB2DBB2DBB20133DBB2DAB2564B95
:101330001A70544B1B78DBB20133DAB2514B1A707E
:101340004F4B00221A7226E04B4B00221A600023FA
:101350000593C82000F052F9012000F0E3F8494B52
:101360001B78DAB2464B5A71454801F027FE464BCE
:101370001B78DBB2DBB2DBB20133DBB2DAB2424B59
:101380001A70404B1B78DBB20133DAB23D4B1A7056
:101390003B4B00221A725EE0344B5B79FB2B5AD137
:1013A000324B9B799A2B56D1314B1B68022B33D190
:1013B000324B1A68059B04339B001A442B4BDB7994
:1013C00010462C491A462C4B00F0EAF8274BDB79E3
:1013D0001A46059B13440593294B01221A72294B87
:1013E0001B78DAB2264B5A71254801F0E7FD264BEF
:1013F0001B78DBB2DBB2DBB20133DBB2DAB2224BF9
:101400001A70204B1B78DBB20133DAB21D4B1A7015
:101410001E4B01221A601BE0194B00221A72194B55
:101420001B78DAB2164B5A71154801F0C7FD164BFE
:101430001B78DBB2DBB2DBB20133DBB2DAB2124BC8
:101440001A70104B1B78DBB20133DAB20D4B1A70F5
:101450000B4B00221A72054801F04CFE0346002B8C
:101460003FF487AC0A4B00221A6076E4E4150020B2
:10147000D4150020EC150020C8150020081F0020FE
:10148000B4000020E0150020E1150020D815002050
:10149000D015002082B001900F4B0222C3F8042522
:1014A00000BF0D4BD3F80034002BFAD00A4A019B41
:1014B000C2F8083500BF084BD3F80034002BFAD02F
:1014C000054B0022C3F8042500BF034BD3F80034BA
:1014D000002BFAD002B0704700E0014082B00190CA
:1014E00000910F4B0122C3F8042500BF0C4BD3F829
:1014F0000034002BFAD0019B009A1A6000BF084B01
:10150000D3F80034002BFAD0054B0022C3F8042591
:1015100000BF034BD3F80034002BFAD002B0704761
:1015200000E0014000B587B001904FF080531B6987
:1015300004934FF080535A691749049BB1FBF3F3AE
:10154000D31A013B0393039B049A02FB03F31A464D
:10155000124B1A60019B012B1AD1002305930FE057
:101560000E4B1A68059B049901FB03F39B089B0033
:10157000134402930298FFF78DFF059B01330593F7
:10158000059A0549049BB1FBF3F301339A42E7D373
:1015900007B05DF804FB00BFAB160100081F002078
:1015A00000B587B00390029101920093029B0493CF
:1015B0000023059319E0059B9B00039AD118059B16
:1015C0009B00049A13441B6808461946FFF786FFE0
:1015D000009B1A68059B9B0004990B441B681A44E6
:1015E000009B1A60059B01330593059A019B9A4263
:1015F000E1D30123184607B05DF804FB84B00190E5
:1016000043E0019B013B019340F2E7330393039BCB
:101610001846013800BF00BF00BF00BF00BF00BFB9
:1016200000BF00BF00BF00BF00BF00BF00BF00BFC2
:1016300000BF00BF00BF00BF00BF00BF00BF00BFB2
:1016400000BF00BF00BF00BF00BF00BF00BF00BFA2
:1016500000BF00BF00BF00BF00BF00BF00BF00BF92
:1016600000BF00BF00BF00BF00BF00BF00BF00BF82
:1016700000BF00BF00BF00BF00BF00BF00BF00BF72
:1016800000BF00BF00BF00BFC3D1019B002BB8D17A
:1016900004B0704782B003468DF8073007499DF9C2
:1016A00007305B099DF8072002F01F02012000FAB5
:1016B00002F241F8232002B0704700BF00E100E0D1
:1016C00082B003468DF8073007499DF907305B0962
:1016D0009DF8072002F01F02012000FA02F2603399
:1016E00041F8232002B0704700E100E082B00346D9
:1016F00000918DF807309DF90730002B0CDA0C496A
:101700009DF8073003F00F03043B009AD2B2520158
:10171000D2B20B441A7609E006499DF90730009AC7
:10172000D2B25201D2B20B4483F8002302B0704708
:1017300000ED00E000E100E000B583B003460A469A
:101740008DF8073013468DF806309DF806309DF968
:10175000072010461946FFF7C9FF9DF907301846C4
:10176000FFF7AEFF9DF907301846FFF793FF03B070
:101770005DF804FB82B001900B468DF803309DF8B4
:101780000330019A134401221A6002B0704700BF6F
:1017900082B001900B46ADF80230BDF80230019ADC
:1017A000134400221A6002B0704700BF82B001905B
:1017B0000B46ADF80230BDF80230019A13441B68A5
:1017C000002B14BF01230023DBB2184602B0704780
:1017D00082B001900091019B009AC3F8042302B0EB
:1017E000704700BF82B001900091019B009AC3F83E
:1017F000082302B0704700BF84B0039002911346E3
:101800008DF80730029A039BC3F844259DF8072002
:10181000039BC3F8482504B0704700BF84B0039011
:10182000029113468DF80730029A039BC3F83425C2
:101830009DF80720039BC3F8382504B0704700BF0C
:1018400082B00190019B0122C3F8502502B070477D
:1018500082B00190019B0022C3F8502502B070476E
:1018600082B00190019B0122C3F8402502B070476D
:1018700082B00190019B0022C3F8402502B070475E
:1018800082B00190019B03F06043B3F1005F0CBF95
:1018900001230023DBB2184602B0704782B00190EA
:1018A0004FF0A042019B012101FA03F3C2F8083571
:1018B00002B0704782B001904FF0A042019B01211D
:1018C00001FA03F3C2F80C3502B0704700B589B0D5
:1018D00003900291009313468DF80730029B049306
:1018E000009B06939DF807308DF814309DF8283042
:1018F0008DF81C3004AB03981946002200F0EAF87A
:101900000346184609B05DF804FB00BF00B583B07C
:101910000190019B9B7EFF2B04D0019B9B7E184670
:10192000FFF7BCFF019B00225A76019B00221A712F
:10193000019B1B68019A04321046984703B05DF87A
:1019400004FB00BF00B583B001900B468DF8033057
:101950009DF8033083F00103DBB2002B04D0019823
:101960004221FFF73FFF03E001984221FFF730FFDC
:1019700003B05DF804FB00BF00B583B00190009197
:10198000009B03F00103002B03D00198FFF758FFE1
:1019900002E00198FFF75CFF009B03F00203002BBD
:1019A00003D00198FFF75CFF02E00198FFF760FFAA
:1019B00003B05DF804FB00BF00B585B00390029151
:1019C00001920093019B1B68002B0AD0019B1B68AE
:1019D0001846FFF755FF034683F00103DBB2002BE7
:1019E0000ED1019B9B68002B0FD0019B9B68184672
:1019F000FFF746FF034683F00103DBB2002B04D060
:101A0000029B00225A7610235FE0019B1A68019B1B
:101A10001B79039811461A46FFF7EEFE019B9A6860
:101A2000019B1B7B039811461A46FFF7F7FE0398AC
:101A30004FF48C71FFF7ACFE03984FF48271FFF7FF
:101A4000A7FE03980099FFF797FF009B03F0080398
:101A5000002B03D103981021FFF78CFE029B1B681B
:101A6000002B25D100BF03984FF48C71FFF79EFE29
:101A7000034683F00103DBB2002BF4D10398142159
:101A8000FFF778FE00BF03984FF48271FFF78EFED8
:101A9000034683F00103DBB2002BF4D1029B9B7E53
:101AA000FF2B11D0029B9B7E1846FFF7F7FE0BE041
:101AB000009B03F00403002B0CBF01230023DBB2C7
:101AC00003981946FFF73EFF0023184605B05DF85E
:101AD00004FB00BF10B586B0039002910192039BF6
:101AE0005B795B011E4A13440593059B5B7EDBB269
:101AF000002B01D011232FE0059B1B68002B07D082
:101B0000019B03F01403002B02D1059B01225A769E
:101B1000059B029A03F1080413460FCB84E80F00DB
:101B2000059A537F6FF300035377059A537F6FF342
:101B300041035377059B9B7EFF2B04D0059B9B7E27
:101B40001846FFF7B7FE039B1B6818460599029AD3
:101B5000019BFFF731FF0346184606B010BD00BFDA
:101B60001016002000B583B00190009101984FF449
:101B70008C71FFF71BFE0346002B07D001984FF432
:101B80008C71FFF705FE0098FFF7C0FE03B05DF80B
:101B900004FB00BF00B583B0044B019304480199D6
:101BA000FFF7E0FF03B05DF804FB00BF1016002054
:101BB0000030004000B583B00346ADF80630BDF8F4
:101BC0000630184600F026F803461B68012B0CBFB0
:101BD00001230023DBB2184603B05DF804FB00BF0D
:101BE00000B585B00346ADF80630BDF8063018469E
:101BF00000F010F803461A4600231360BDF80630C3
:101C0000184600F007F803461B680393039B05B0D2
:101C10005DF804FB82B00346ADF80630BDF806302F
:101C200003F1804303F5C043184602B0704700BF7C
:101C300082B00190024A019BC2F8043302B070479F
:101C40000060004082B00190034BD3F80423019B55
:101C50001340184602B070470060004082B0019007
:101C6000054A019B03F5A27352F8233003F4F8539D
:101C70001B0A184602B070470060004082B0019015
:101C8000064A019B03F5A27352F8233003F4403354
:101C90001B0CDBB2184602B0704700BF006000406A
:101CA00082B001900B468DF803304FF0A0414FF009
:101CB000A042019B03F5E07352F8233023F4403235
:101CC000019B03F5E07341F823204FF0A0414FF052
:101CD000A042019B03F5E07352F823309DF80320E6
:101CE00012041A43019B03F5E07341F8232002B06C
:101CF000704700BF82B001904FF0A043D3F8102589
:101D0000019B22FA03F303F00103184602B0704767
:101D10004FF0A043D3F810351846704782B00190B9
:101D20004FF0A042019B03F5E07352F8233003F417
:101D300040331B0CDBB2184602B0704782B00190F2
:101D4000034A019B13443033FF221A7002B07047DC
:101D50003016002082B00190044A019B13443033B6
:101D60001B785BB2184602B0704700BF30160020E7
:101D700082B00190034A019B52F82330184602B00A
:101D8000704700BF3016002082B003468DF8073040
:101D90009DF80730094A4FF0FF3142F823109DF8B3
:101DA0000730072B07D99DF80730083B034A134437
:101DB000FF2283F8502002B0704700BF3016002089
:101DC00000B583B01D4B93F85430002B01D008238D
:101DD00030E000238DF8073009E09DF80730184601
:101DE000FFF7ACFF9DF8073001338DF807309DF801
:101DF00007301F2BF1D900238DF8073009E09DF83B
:101E000007301846FFF7C0FF9DF8073001338DF803
:101E100007309DF807300B2BF1D906200621FFF77C
:101E20008BFC4FF00040FFF703FF044B012283F8C7
:101E300054200023184603B05DF804FB3016002040
:101E4000044B93F85430002B14BF01230023DBB262
:101E5000184670473016002000B583B001900198F5
:101E6000FFF748FF0346002B14BF01230023DBB21A
:101E7000184603B05DF804FB00B593B0002311933E
:101E8000002310934FF48073ADF83A3001230D9383
:101E900000230F9321E0BDF83A301846FFF78AFE81
:101EA0000346002B0ED00D98FFF7CCFE0346002B07
:101EB00008D0BDF83A301846FFF792FE119A0D9BF4
:101EC000134311930D9B5B000D93BDF83A3004331F
:101ED000ADF83A300F9B01330F930F9B072BDAD9E4
:101EE0004FF4BE70FFF766FE0346002B0AD04FF496
:101EF000BE70FFF775FE119B43F000431193FFF78F
:101F000007FF1090119BDBB2002B26D001230D930D
:101F100000230F931EE00D9A119B1340002B13D04A
:101F20000F98FFF79BFE09900F98FFF7A7FE034657
:101F30008DF823300F98FFF71BFF07909DF82320A3
:101F4000079B0998114698470D9B5B000D930F9BCB
:101F500001330F930F9B072BDDD9119B002B80F2D0
:101F6000A38000238DF8333000230B934FF0FF3311
:101F70000A9300238DF8333000230F9379E04C4A05
:101F80000F9B134450331B788DF81B309DF81B308A
:101F900023F0C0030593464A0F9B134450331B782C
:101FA0005BB2B3F1FF3F61D0059B0A9A22FA03F3BB
:101FB00003F00103002B59D09DF81B309B098DF8CD
:101FC00013300598FFF7C6FE03461846FFF7D0FE0C
:101FD0000390039B002B03D19DF81330032B45D1B5
:101FE000059B012202FA03F30D939DF81330032B96
:101FF00003D10B9A0D9B13430B930598FFF78EFEAD
:1020000003468DF80B300D9A109B1340002B03D024
:102010009DF80B30022B08D00D9A109B1340002B1B
:1020200024D19DF80B30032B20D19DF81330032BC6
:1020300013D19DF80B30022B01D1032300E00223C2
:102040008DF80A309DF80A3005981946FFF728FEEA
:102050009DF8333001338DF83330039B002B05D0CE
:102060009DF81320039B0598114698470F9B013359
:102070000F930F9B032B82D99DF83330002B0ED08A
:10208000FFF746FE0190019A109B9A4203D100236C
:102090008DF8333003E0019B10930B9B0A939DF85E
:1020A0003330002B7FF465AF13B05DF804FB00BF45
:1020B0003016002082B003468DF8073007499DF99D
:1020C00007305B099DF8072002F01F02012000FA8B
:1020D00002F241F8232002B0704700BF00E100E0A7
:1020E00082B003468DF8073007499DF907305B0938
:1020F0009DF8072002F01F02012000FA02F22033AF
:1021000041F8232002B0704700E100E082B00346AE
:102110008DF8073007499DF907305B099DF80720C6
:1021200002F01F02012000FA02F2403341F823209E
:1021300002B0704700E100E082B003468DF807303E
:1021400007499DF907305B099DF8072002F01F023F
:10215000012000FA02F2603341F8232002B07047F8
:1021600000E100E082B0034600918DF807309DF950
:102170000730002B0CDA0C499DF8073003F00F03F1
:10218000043B009AD2B25201D2B20B441A7609E053
:1021900006499DF90730009AD2B25201D2B20B44DF
:1021A00083F8002302B0704700ED00E000E100E09A
:1021B00086B00190019B1B680593059B0493049BCB
:1021C00093FAA3F30393039B0293029B1BBA00BFF2
:1021D000184606B0704700BF00B585B00190019861
:1021E000FFF7E6FF03460393039B1BBA00BF1846A5
:1021F00005B05DF804FB00BF82B00190084B094AAE
:10220000C3F81425064A084B5B7C013B1B0443F0D2
:10221000807343F02003C2F8183502B0704700BF46
:1022200000100040060003000401002082B001906D
:102230000A4B0B4AC3F8142508490A4B5B7C013B47
:102240001B041A46019B1B021A43019B134343F0D4
:102250008073C1F8183502B0704700BF001000400D
:10226000000101000401002010B582B003468DF882
:1022700007309DF8073003F00103002B06D0154C02
:102280001548FFF7A9FF0346C4F81C359DF8073031
:1022900003F00203002B06D00E4C1048FFF79CFF02
:1022A0000346C4F820359DF8073003F00403002BE3
:1022B0000DD0084C0A48FFF77BFF0346C4F82435CD
:1022C000044C0848FFF774FF0346C4F8283502B0F1
:1022D00010BD00BF001000400401002008010020D4
:1022E0000C01002010010020024B034A927AC3F82F
:1022F0000C2570470010004094160020124B134A22
:10230000127AC3F81025114B1B7A032B1AD801A29D
:1023100052F823F02D230000252300003523000070
:102320003D2300000A4B30221A600CE0084B40228B
:102330001A6008E0064BFA221A6004E0044B4022BF
:102340001A6000E000BF70470010004094160020A3
:10235000D8190020074B1B78002B06D0012B00D08A
:1023600007E0054B054A1A6003E0034B044A1A6074
:1023700000BF704794160020E4190020F9210000E6
:102380002D220000104B114A527AC3F834250F4B0E
:102390005B7A022B09D10C4B4FF6FF72C3F83C2538
:1023A000094B0B4AC3F838250CE0084B5B7A012B2C
:1023B00008D1054BFF22C3F83C25034B40F207121E
:1023C000C3F83825704700BF001000409416002065
:1023D0002110010008B5FFF787FFFFF78FFFFFF718
:1023E000B9FFFFF7CFFF034B1B68034AD27C1046AF
:1023F000984708BDE419002094160020094B0022DC
:102400001A62084B00225A62064B00229A62064B5F
:1024100000221A62044B00225A62034B00229A6285
:10242000704700BFD41700202819002000B583B0E2
:10243000FFF7E4FF002301930EE0019A1346DB004F
:1024400013449B001344124A1A441249019B41F859
:102450002320019B01330193019B072BEDDD00231A
:1024600000930EE0009A1346DB0013449B001344D4
:10247000094A1A440949009B41F82320009B013373
:102480000093009B072BEDDD03B05DF804FB00BF5C
:10249000AC160020D41700200018002028190020B6
:1024A00008B50E4B9B6A002B16D00120FFF718FED3
:1024B0000A4B9B6A013B094A9362084B5B6A0133F2
:1024C000064A5362054B5B6A072B02D9034B002275
:1024D0005A620120FFF7EEFD08BD00BFD4170020AF
:1024E00000B583B003460A468DF8073013468DF8D1
:1024F0000630374B9B6A072B64D8364B1B78012B71
:102500000ED1354B1B78202B01D900235BE0304BDB
:102510001B6A2F4A52F823302F4A12781A7013E0A0
:102520002C4B5B78002B07D1294B1B6A284A52F8A9
:10253000233000221A7007E0254B1B6A244A52F808
:102540002330244AD27C1A70214B1B6A204A52F84D
:102550002330591D1E4B1B6A1D4A52F823301B782D
:1025600008461E491A4601F08DFE194B1B6A184A8F
:1025700052F823309DF807205A70154B1B6A144AF5
:1025800052F82330164AD2F84825D2B29A70104B2E
:102590001B6A0F4A52F823309DF806201A710C4B23
:1025A0001B6A01330A4A1362094B1B6A072B02D9C3
:1025B000074B00221A62064B9B6A0133044A93625E
:1025C000012300E00023184603B05DF804FB00BFC0
:1025D0002819002094160020781900207A1900206C
:1025E00000100040064B0422C3F81025044B0022C3
:1025F000C3F80825024B40F20222C3F800227047BC
:1026000000A00040104B114AC3F860250E4B104A41
:10261000C3F864250C4B0F4AC3F868250A4B0E4AD1
:10262000C3F86C25084B0D4AC3F87025064B0C4ABD
:10263000C3F87425044B0B4AC3F87825024B0A4AA9
:10264000C3F87C25704700BF00F001400011004036
:1026500000A000400411004004A0004040A1004040
:102660001010004044A100400010004000B583B0AD
:102670006A4B01221A606A4B5B6A694A52F823303E
:10268000684A1360674B1B68DB78002B06D0664BEB
:102690001B7D83F00103DBB2002B01D0012300E09E
:1026A00000238DF807309DF8073003F001038DF803
:1026B00007305D4B1B78002B02D0012B2FD07DE023
:1026C0005A4B1B68574A1268127810469847554B68
:1026D0001B681A79564B1A70554B00225A70514B91
:1026E0001B685A1D4F4B1B681B78524811461A46EF
:1026F00001F0C8FD504B40F21B12C3F800224E4BB4
:102700001122C3F80423484BDB891A464B4B1A604D
:102710004B4B4C4A1A604C4B02221A704EE0414B14
:102720001B681A78424B1A703E4B1B681B795B0082
:10273000DAB23F4B5A703E4B5B78DAB29DF8073005
:10274000002B01D0002300E001231343DBB2DAB2F7
:10275000374B5A70334B1B685A1D324B1B681B7822
:10276000344811461A4601F08DFD9DF80730002BC4
:1027700014D0314B40F21B12C3F800222E4B112211
:10278000C3F80423284BDB891A462C4B1A602C4BC8
:102790002C4A1A602C4B02221A700EE0264B40F293
:1027A0001312C3F80022244B1022C3F80423244B35
:1027B000264A1A60244B01221A7000BF1E4A194B88
:1027C0001B685B78C2F82C351B4A164B1B685B787C
:1027D000194601238B40C2F83035174B1C4AD27C76
:1027E000C3F80825144B124AC3F804250120FFF74B
:1027F000A3FC0120FFF75EFC0F4B0022C3F804216D
:102800000D4B0022C3F808210B4B0022C3F8102106
:10281000094B01221A6003B05DF804FBD4190020B3
:10282000D41700208C16002094160020E4190020F4
:10283000541900205619002000100040D019002023
:10284000DC1900202129000089160020E128000061
:102850000401002008B51F4BD3F80031002B0AD02B
:102860001C4BD3F8043303F00103002B03D0194BA6
:102870000022C3F80021174BD3F80C31002B11D0E4
:10288000144BD3F8043303F00803002B0AD0114B88
:102890000022C3F80C21104B1B68002B02D00E4BFA
:1028A0001B6898470B4BD3F81031002B11D0094B04
:1028B000D3F8043303F01003002B0AD0054B002299
:1028C000C3F81021054B1B68002B02D0034B1B687B
:1028D000984708BD00100040E0190020DC190020D6
:1028E00008B50C4B1B6843F001030A4A1360FFF75D
:1028F000D7FD094B9B6A002B06D1084B00221A70AA
:102900001420FFF703FC04E01420FFF7FFFBFFF7A0
:10291000ADFE08BD9C190020D417002089160020A8
:1029200008B51E4B40F21312C3F800221C4A1D4B7F
:102930001B68C2F840351A4B1B4A9289823AC3F889
:102940004425174B0122DA60154B0022C3F84021C1
:10295000134B0022C3F84421144B4FF4E052C3F848
:102960000425124B4FF40052C3F808250B4B0022EC
:10297000C3F80C210C4B1B78002B03D10C4B1B68AC
:1029800000209847054B0B4AC3F804250A4B0B4A15
:102990001A600B4B03221A7008BD00BF00100040E4
:1029A00000A00040D81900209416002000F001403B
:1029B000E419002078190020DC190020C529000046
:1029C0008916002008B54F4B4FF4E052C3F8082594
:1029D0004D4BD3F80C31002B4BD04B4BD3F800347C
:1029E000002B46D0494B01225A60464B4FF400520F
:1029F000C3F80825464B1B6843F00103444A1360A3
:102A0000444BDB891A46444B1B68D31A0133434AB3
:102A10001360FFF745FD3F4B1B78002B14D0404B54
:102A20001B78002B10D0384BD3F82C35DBB218466E
:102A30000021FFF755FD0346002B05D0344B1B68E2
:102A400043F00403324A1360364B9B6A002B03D0D9
:102A5000304B1B7C012B06D1334B00221A70142003
:102A6000FFF754FB4DE01420FFF750FBFFF7FEFD8E
:102A700047E0294B1B685A1E27490A60002B1AD1D0
:102A8000224B01225A601F4B4FF40052C3F8082515
:102A9000204BDB8901331A46204B1A601C4B1B6804
:102AA00043F002031A4A13601F4B00221A701420CD
:102AB000FFF72CFB25E0144B40F21B12C3F8002259
:102AC0001A4B1B681A4A12681278104698470E4B28
:102AD000184AC3F80425184B184A1A60124B0222F0
:102AE0001A700A4B01221A60064B4FF40052C3F8C9
:102AF0000425064BD3F84431002B02D0024B0122AF
:102B00001A6008BD00F001400010004000A0004025
:102B10009C19002094160020D0190020D419002000
:102B200078190020D417002089160020E41900200D
:102B30008C16002054190020DC19002021290000E7
:102B400008B5144B40F21312C3F80022124B1B6855
:102B5000124AD27C104698470E4B114AC3F80425FE
:102B60000C4B0022C3F810210A4B01221A6100BF4E
:102B7000084BD3F81031002BFAD0064B0022C3F8D3
:102B80001021044B40F21712C3F80022014B01221E
:102B90005A6008BD00100040E4190020941600207F
:102BA0007819002000B583B000238DF8073000238A
:102BB0008DF8063001238DF805307B4BD3F80034B7
:102BC000002B02D1FFF7BCFFEAE0784B9B6A072B92
:102BD00002D9FFF7B5FFE3E0734BD3F808349B004D
:102BE000734A13440093704BD3F80C34009A128844
:102BF00093420DD16F4B5B785B08DAB2009B9B78F8
:102C00009A4205D101238DF8063000238DF8053056
:102C1000684B5B785B08DAB2009B9A70624BD3F822
:102C20000C349AB2009B1A80634B1B7D83F0010326
:102C3000DBB2002B05D15F4B5B7803F00103002B67
:102C400002D101238DF807309DF80730002B00F0EA
:102C50008B80554B40F21B12C3F80022564B1B7859
:102C6000002B64D0012B6ED1544B9B6A002B4FD0AC
:102C7000524B5B6A514A52F823305B781A464A4BF2
:102C8000D3F808349A4243D1009BDB78002B1DD047
:102C90009DF8063083F00103DBB2002B16D0474BC2
:102CA0005B6A0133454A5362444B5B6A072B02D986
:102CB000424B00225A62414B9B6A013B3F4A93625E
:102CC0003F4B1B6843F001033D4A1360009B012208
:102CD000DA703A4B5B6A394A52F82330394A13604A
:102CE000394B1B68374A1268127810469847354BA3
:102CF0001B681A78354B1A70324B1B685A1D314BC2
:102D00001B681B78324811461A4601F0BBFA09E0ED
:102D1000009B0022DA702C4B1B68002098472B4B3D
:102D200000221A70234B5A78284B5A700BE0264B1E
:102D30001B68002098471F4B1A78244B1A70234BAE
:102D400000225A7000BF234B05221A70164A164BF8
:102D5000D3F80834C2F82C35134B1C4AC3F80425A9
:102D60001D4B1E4A1A6001E0FFF7EAFE9DF8053090
:102D7000002B15D00C4BD3F80834DAB2009B9B78AB
:102D800010461946FFF7ACFB0346002B08D00C4B4E
:102D90001B6843F004030A4A13601420FFF7B6F9D6
:102DA00003B05DF804FB00BF0010004028190020AC
:102DB000AC1900207819002094160020D4170020A8
:102DC0009C1900208C160020E419002054190020C2
:102DD0005619002089160020DC190020E12D000082
:102DE00008B50B4B40F21712C3F80022094B1B68C1
:102DF000094AD27C10469847054B084AC3F8042577
:102E0000074B084A1A60084B04221A7008BD00BF1D
:102E100000100040E41900209416002078190020CA
:102E2000DC190020A52B00008916002000B585B014
:102E30000190019B002B01D10E2343E0234B1B7813
:102E4000002B07D000F050F80390039B002B01D01B
:102E5000039B37E0019B5B681D4A13601D48019985
:102E6000182201F00FFA1C4B00221A601B480021A7
:102E70002422FDF767FB1A4800210922FDF762FBB7
:102E8000FFF7A8FAFFF7D2FAFFF7ACFBFFF7BAFBA0
:102E9000104B5B7C03F0030301201946FFF762F936
:102EA0000C4B9B7C03F0030314201946FFF75AF9DF
:102EB0001420FFF7FFF80B4B00221A70034B01227E
:102EC0001A700023184605B05DF804FB8816002030
:102ED00090160020941600209C190020AC190020A8
:102EE000A01900208916002008B50F4B4FF470522E
:102EF000C3F808250D4B00221A70FFF77FFA0C4823
:102F000000212422FDF71EFB0A4800210922FDF7BB
:102F100019FB1420FFF7E4F8074B0322C3F8002243
:102F20000023184608BD00BF00F0014089160020AC
:102F3000AC190020A01900200010004000B585B099
:102F40001C4B1B68019302AB184600F08BF90390F1
:102F5000039B002B2AD1184B1B68002B26D0029B09
:102F600003F00103002B07D000238DF80030124B33
:102F70001B686A4610469847029B03F00203002B29
:102F800007D001238DF800300B4B1B686A461046B2
:102F90009847029B03F00403002B07D002238DF80F
:102FA0000030054B1B686A461046984705B05DF82F
:102FB00004FB00BFD41900209016002000B583B098
:102FC0000190464B1B7883F00103DBB2002B01D04C
:102FD00008237EE0019B002B01D10E2379E0019BA9
:102FE0001B78002B0DD0019B1B78202B09D83C4B64
:102FF0001B78002B07D1019B1A78394BDB7C9A4256
:1030000001D9092365E0374B9B6A072B01D90423BB
:103010005FE0334B5B78002B0CD1019BDB78002BFE
:1030200008D02F4B1B7D83F00103DBB2002B01D0B6
:1030300006234EE00120FFF753F82A4B1B6A294A6A
:1030400052F8233018460199252201F01BF9019B03
:103050005B781946019B5B781A46234B9B5C5A1C94
:10306000224B1340002B03DA013B63F003030133CF
:10307000DAB21D4B5A541B4B1B6A1A4A52F82330C2
:10308000019A52781146184A525C1A71154B1B6A04
:103090000133144A1362134B1B6A072B02D9114BDD
:1030A00000221A620F4B9B6A01330E4A9362012081
:1030B000FFF700F80A4B5B78002B09D1084B1B7C0B
:1030C000002B05D10A4B1B78002B01D1FFF7CEFA5C
:1030D0000023184603B05DF804FB00BF88160020EB
:1030E00094160020D4170020A019002003000080AF
:1030F0008916002000B583B001902F4B1B7883F018
:103100000103DBB2002B01D0082351E0019B002B0F
:1031100001D10E234CE0294B9B6A002B01D10523E2
:1031200046E00120FEF7DCFF244B5B6A234A52F89D
:1031300023301A78019B1A70204B5B6A1F4A52F8A1
:1031400023305A78019B5A701C4B5B6A1B4A52F819
:1031500023309A78019B9A70184B5B6A174A52F891
:1031600023301A79019B1A71019B591D134B5B6A1D
:10317000124A52F823305A1D019B1B78084611460B
:103180001A4601F07FF80D4B5B6A01330B4A53621C
:103190000A4B5B6A072B02D9084B00225A62074B85
:1031A0009B6A013B054A93620120FEF783FF0023DF
:1031B000184603B05DF804FB88160020281900208B
:1031C00008B5224B1B78002B01D011233BE0204B8C
:1031D0004FF0FF32C3F808231D4B0022C3F8102123
:1031E0001C4B1D4A1A601A4B40F21712C3F80022FA
:1031F000174B1022C3F80423144B04221A70144BEB
:10320000164A927CC3F83025114B144AD27CC3F87D
:1032100008250F4B124AC3F804250120FEF78CFF46
:103220000120FEF747FF0A4B0022C3F80421084B98
:103230000022C3F80821064B0022C3F81021044BDA
:1032400001225A600023184608BD00BF89160020DD
:1032500000100040DC190020A52B00000401002014
:103260007819002000B583B00190104B1B7883F0D3
:103270000103DBB2002B01D0082312E0019B002BDD
:1032800001D10E230DE00120FEF72AFF084B1A683A
:10329000019B1A60064B00221A600120FEF70AFF0C
:1032A0000023184603B05DF804FB00BF8816002019
:1032B0009C19002000B583B001900C4B1B78002BAB
:1032C00001D011230DE0019B002B01D10E2308E05A
:1032D00007480199042200F0D5FF0120FEF7C4FF42
:1032E0000023184603B05DF804FB00BF89160020D8
:1032F0000401002000B583B001900C4B1B78002B1B
:1033000001D011230DE0019B002B01D10E2308E019
:1033100007480199042200F0B5FF0220FEF7A4FF40
:103320000023184603B05DF804FB00BF8916002097
:103330000801002000B583B001900B468DF80330E2
:10334000164B1B78002B01D0112323E0019B002B8F
:1033500001D10E231EE09DF80330082B01D907236D
:1033600018E09DF803300E4801991A4600F08AFFD4
:103370000C4A9DF8033013749DF80330C3F1080321
:10338000FF2242FA03F3DAB2064B9A740420FEF7E6
:103390006BFF0023184603B05DF804FB891600207C
:1033A0000C0100200401002000B587B0019000232B
:1033B000ADF80C3000230493019B059303AB44F25A
:1033C000010000211A4600F015F807B05DF804FB73
:1033D000BFF34F8F0549054BDB6803F4E062044BF4
:1033E0001343CB60BFF34F8F00BFFDE700ED00E05C
:1033F0000400FA0500B585B0039002910192FFF731
:10340000E7FF05B05DF804FB704700BF00B589B069
:10341000039002910192FFF7F7FF8349039A134645
:103420005B001344DB000B4428335B6803F00303A9
:10343000022B3AD07C49039A13465B001344DB000D
:103440000B4428331B6805937749039A13465B00A6
:103450001344DB000B4420335B68059AD31A013B0D
:103460000793079B002B0BDA6F49039A13465B0007
:103470001344DB000B4420331B68079A1344079363
:10348000019A079B9A4210DD6749039A13465B0035
:103490001344DB000B4428335B6803F00303002B69
:1034A00001D10023BCE0079B0193019B002B01D1BC
:1034B0000023B5E0002306935B49039A13465B00A3
:1034C0001344DB000B4428331B6805935649039AC9
:1034D00013465B001344DB000B4420335B68059A02
:1034E000D31A013B0793079B002B0BDA4E49039A33
:1034F00013465B001344DB000B4420331B68079A20
:10350000134407934849039A13465B001344DB00B6
:103510000B44203319684448039A13465B00134454
:10352000DB00034420335B68CA1A079B9A4213DC12
:103530003D49039A13465B001344DB000B442033E0
:1035400019683948039A13465B001344DB000344AF
:1035500020335B68CB1A00E0079B0793019B079A17
:103560009342A8BF134607932F49039B5A1C134647
:103570005B001344DB000B4459682B48039A134645
:103580005B001344DB00034420335B68CA18079BCD
:10359000104602991A4600F075FE079B069A1344DE
:1035A0000693079B029A13440293079B019AD31A2E
:1035B00001931D49039A13465B001344DB000B443F
:1035C00020335A68079BD1181748039A13465B00AB
:1035D0001344DB000344203359601349039A134614
:1035E0005B001344DB000B44203359680E48039AF8
:1035F00013465B001344DB00034420331B689942ED
:1036000009D10949039A13465B001344DB000B44BC
:10361000203300225A60019B002B7FF44DAF069BA4
:10362000184609B05DF804FB1801002008B5FFF743
:10363000EBFE08BD00B585B001900B468DF8033058
:10364000019B9B680393039B5A1C019B5B689A42F6
:103650000FDC019B1A68039B13449DF803201A702A
:10366000039B5A1C019B9A60019BDB685A1C019BBF
:10367000DA60019B9A68019B5B689A4217D1019BB3
:103680001969019B1A68019B9B68084611461A46F6
:10369000FFF7BCFE0246019B9B689A4204D0019B47
:1036A0004FF0FF32DA6002E0019B00229A6005B021
:1036B0005DF804FB00B58BB003900291019200937A
:1036C00001230993029B08930123079307E0089ABB
:1036D000019BB2FBF3F30893079B01330793089A0E
:1036E000019B9A42F3D2009A079B9A4201D9009B10
:1036F00007930D9B03F00103002B26D10C9B002B9D
:1037000023D00D9B03F00203002B06D0009B002B5F
:1037100003D130238DF81B3002E020238DF81B30BD
:103720000AE09DF81B3003981946FFF783FF039BBF
:10373000DB68002B00DA60E00C9B002B05D00C9BB3
:103740005A1E0C92079A9342EBD804E0099B019A07
:1037500002FB03F30993029A099BB2FBF3F2019B6C
:103760009A422CBF01230023DAB2009B591E00911C
:10377000012BCCBF01230023DBB21343DBB2002BB0
:10378000E4D1029A099BB2FBF3F30593059B099AD6
:1037900002FB03F3029AD31A0293194A059B1344BE
:1037A0001B7803981946FFF745FF039BDB68002B46
:1037B00000DA07E0099A019BB2FBF3F30993099B36
:1037C000002BDED10D9B03F00103002B15D00C9BC9
:1037D000002B12D008E003982021FFF72BFF039B5A
:1037E000DB68002B00DA08E00C9B002B05D00C9B5B
:1037F0005A1E0C92079A9342EDD80BB05DF804FB69
:103800001843000010B588B005900491039202930C
:10381000049B002BB8BF5B4206930123079307E08C
:10382000069A039BB2FBF3F30693079B01330793BE
:10383000069A039B9A42F3D2029A079B9A4201D9B5
:10384000029B07930A9B002B0AD0049B002B04DBEE
:103850000B9B03F00403002B02D00A9B013B0A934D
:103860000B9B03F00203002B02D0029B002B1AD00B
:103870000B9B03F00103002B15D10A9B002B12D0E8
:1038800008E005982021FFF7D5FE059BDB68002B9B
:1038900000DA54E00A9B002B05D00A9B5A1E0A92BC
:1038A000079A9342EDD8049B002B0BDA049B5B42F2
:1038B000049305982D21FFF7BDFE059BDB68002BC7
:1038C0000EDA3CE00B9B03F00403002B08D00598B4
:1038D0002B21FFF7AFFE059BDB68002B00DA2EE003
:1038E0000B9B03F00203002B1DD00B9B03F0010385
:1038F000002B18D1029B002B15D10A9B002B12D054
:1039000008E005983021FFF795FE059BDB68002B4A
:1039100000DA14E00A9B002B05D00A9B5A1E0A927B
:10392000079A9342EDD8049A029C0A9B00930B9B42
:10393000019305981146039A2346FFF7BBFE08B092
:1039400010BD00BF10B5A2B005900491039206AB64
:1039500016934023179300231893059B1A93002373
:103960001993049B5A1C04921B788DF887309DF89C
:103970008730002B00D159E19DF88730252B40F08E
:103980004A8100231F93049B1B788DF887309DF894
:103990008730233B0D2B40D801A252F823F000BF03
:1039A000093A00001B3A00001B3A00001B3A0000D5
:1039B0001B3A00001B3A00001B3A00001B3A0000B3
:1039C000F93900001B3A0000D93900001B3A000009
:1039D0001B3A0000E93900001F9B43F001031F93CD
:1039E000049B0133049317E01F9B43F002031F93D2
:1039F000049B013304930FE01F9B43F004031F93C8
:103A0000049B0133049307E01F9B43F008031F93BB
:103A1000049B0133049300BFB5E700BF00231E934E
:103A2000049B1B788DF887309DF887302F2B12D997
:103A30009DF88730392B0ED8049B013304931E9ACE
:103A400013469B0013445B001A469DF887301344CD
:103A5000303B1E93E4E700232093049B1B788DF8F2
:103A600087309DF887302E2B1DD1049B01330493A2
:103A7000049B1B788DF887309DF887302F2B12D947
:103A80009DF88730392B0ED8049B01330493209A7C
:103A900013469B0013445B001A469DF8873013447D
:103AA000303B2093E4E7049B1B788DF887309DF82A
:103AB00087306C2B03D09DF88730682B06D1049B90
:103AC0005A1C04921B788DF88730F0E700BF9DF8F0
:103AD0008730642B27D0642B07DC582B4BD0632B0B
:103AE0000FD0252B00F08D8091E0732B58D0732BD5
:103AF00002DC702B71D08AE0752B27D0782B3AD05E
:103B000085E0039B1B68191D039A11601B681C93B9
:103B10001C9B8DF86F3016AA9DF86F301046194621
:103B2000FFF788FD73E0039B1B68191D039A116062
:103B30001B681C9316AA1E9B00931F9B01931046A3
:103B40001C990A22209BFFF75DFE60E0039B1B6827
:103B5000191D039A11601B681C931C9A209C16A9BE
:103B60001E9B00931F9B0193084611460A22234681
:103B7000FFF7A0FD4BE0039B1B68191D039A116022
:103B80001B681C931C9A209C16A91E9B00931F9BCC
:103B900001930846114610222346FFF78BFD36E0BD
:103BA000039B1B68191D039A11601B681D931D9BC5
:103BB0005A1C1D921B788DF887309DF88730002B9A
:103BC00000D109E016AA9DF8873010461946FFF784
:103BD00031FD199B002BEADA19E0039B1B68191DC4
:103BE000039A11601B681C931C9A16A90823009362
:103BF000002301930846114610220823FFF75AFDBF
:103C000005E016AB18462521FFF714FD00BF049B05
:103C10000133049306E016AA9DF887301046194632
:103C2000FFF708FD199B002BBFF69BAE199B002BDD
:103C30000DDD189B002B06D0189B1A4606AB059885
:103C40001946FFF7E3FB199A189B13441993199B24
:103C5000184622B010BD00BF0EB400B584B001906C
:103C600006AB039303AB019805991A46FFF76AFE6A
:103C70000346184604B05DF804EB03B0704700BF7C
:103C800000B587B00390019200930B468DF80B307E
:103C90000A4B1B78012B06D19DF80B30012B02D16A
:103CA000064B02221A70019B0593059B002B02D044
:103CB0000598FFF779FB07B05DF804FB001E0020B4
:103CC00000B585B00190019B1B68B3F1FF3F01D1A6
:103CD00000232BE000238DF80F3002AB184600F0D4
:103CE00055F8029B1B78012B1ED10023ADF80C3038
:103CF000029B5B88002B0DD043F208031B681A4619
:103D0000029B9B6810461946002200F077F8034694
:103D1000ADF80C30029B5B88BDF80C209A420CBFBA
:103D2000012300238DF80F309DF80F30184605B0A1
:103D30005DF804FB00B585B00023019300230293D6
:103D4000104B019300F02AF90390039B002B01D044
:103D5000039B13E01C23ADF808300123ADF80A30B3
:103D6000094B00221A60084B4FF4FE225A6001AB47
:103D70001846054900F074F90390039B184605B0F6
:103D80005DF804FB813C0000F81D002084B0019028
:103D9000034B0393019B039A1A6004B0704700BF62
:103DA0009C010020F0B482B00190019B186880F360
:103DB00008885868FF2464B2EFF30585002D01D10F
:103DC000A64600472546064621273FBAF0B4002400
:103DD000002500260027F0B4F92040B2004700BFBC
:103DE00002B0F0BC704700BF00B583B001900198ED
:103DF000FFF7D8FF03B05DF804FB00BF86B0039067
:103E000002910192019B002B02D0019B1B8801E0D3
:103E10004FF6FF73ADF81630002304933AE0BDF877
:103E200016301B0A9BB2DBB29AB2BDF816301B02E9
:103E30009BB213439BB2ADF81630039A049B134414
:103E40001B789AB2BDF816305340ADF81630BDF865
:103E50001630DBB21B09DBB29AB2BDF81630534004
:103E6000ADF81630BDF816301B039AB2BDF8163007
:103E700053409BB2ADF81630BDF81630DBB25B0193
:103E80009AB2BDF8163053409BB2ADF81630049B81
:103E900001330493049A029B9A42C0D3BDF81630B2
:103EA000184606B0704700BF4FF080531B699BB2A5
:103EB0001846704700B583B04FF010235B6901933B
:103EC000019BB3F1FF3F07D0FFF7EEFF03461A4611
:103ED000019BB3FBF2F302E04FF080535B6918469D
:103EE00003B05DF804FB00BF82B001901D49019A48
:103EF00013469B0013449B000B4400221A7119497E
:103F0000019A13469B0013449B000B440022DA8065
:103F10001449019A13469B0013449B000B44083339
:103F200001225A600F49019A13469B0013449B00DB
:103F30000B44083300229A600A49019A13469B00F9
:103F400013449B000B44103300225A600549019A28
:103F500013469B0013449B000B4400221A8102B0BD
:103F6000704700BF041E002000B583B00A4B00223A
:103F70001A70094B00225A700023019305E0019842
:103F8000FFF7B2FF019B01330193019B092BF6D987
:103F900003B05DF804FB00BF041E002010B582B022
:103FA000FFF7E2FF264B00221A80FFF783FF03464C
:103FB0009C1EFFF779FF034603FB04F3214A1360BD
:103FC000214B00221A60002301931FE01F49019A30
:103FD00013465B0013449B000B4400221A601B49EC
:103FE000019A13465B0013449B000B4408330022E4
:103FF0001A801649019A13465B0013449B000B4438
:10400000083300225A80019B01330193019B002B4E
:10401000DCD00F4B00221A700E4B00221A600E4BA0
:1040200000221A600D4B00221A600B4B1B6843F0F4
:104030000403094A13600023184602B010BD00BFF4
:10404000D01E0020D41E0020DC1E0020E41E002014
:10405000D81E0020E01E0020F41E0020F01E0020CC
:1040600010B584B001900091434B1B6803F004032A
:10407000002B01D108237CE0019B002B01D10E23F2
:1040800077E0009B002B01D10E2372E0019B1B689F
:10409000002B01D10E236CE0019B9B8803F00303EE
:1040A0009BB2002B01D0072363E0344B1B88012B0C
:1040B00001D104235DE0314B1B881A46009B1A6036
:1040C0002E4B1B881846009B5A682D4903465B00FF
:1040D00003449B000B445A60284B1B881846019BE5
:1040E0001A68274903465B0003449B000B441A608F
:1040F000224B1B881946019B9888214A0B465B007E
:104100000B449B001344083302461A801B4B1B8848
:104110001946019BD8881A4A0B465B000B449B004A
:104120001344083302465A80019B9B881A46019B20
:10413000DB8803FB02F4FFF7B7FE034623445C1E53
:10414000FFF7B2FE034694FBF3F30393FFF7ACFED5
:1041500003461A46039B03FB02F20A4B1B681344F7
:10416000084A1360054B1B8801339AB2034B1A802F
:104170000023184604B010BDF41E0020D01E0020FD
:10418000E41E0020D41E002052DF7047184600BFF6
:1041900000B585B01C4B1B78DBB283F00103DBB2AA
:1041A000002B00D02CE0194B1B68002B0CBF012307
:1041B00000238DF80F309DF80F3083F00103DBB240
:1041C000002B17D001AB1846FFF7DEFF0290029BD1
:1041D000052B03D101238DF80F300BE0029B002B40
:1041E00003D00298FFF7E0F804E0084B1B68019A3F
:1041F000104698479DF80F30002B00D000E0DAE71A
:1042000005B05DF804FB00BFFC1E0020001F00206D
:1042100000B583B00B4B1B68002B0DD0094B1B68FE
:1042200098470190019B0093009B002B03D00098BE
:10423000FFF7BAF802E001E0FFF7AAFF03B05DF86C
:1042400004FB00BFF81E00200649074A074B9B1AD3
:1042500003DD043BC858D050FBDCFCF797F9FCF7B2
:10426000FDF8000034430000000000209C110020F5
:10427000FEE7FEE7FEE7FEE7FEE7FEE7FEE7FEE716
:10428000FEE7FEE710B5431E0A44914204D011F840
:10429000014B03F8014FF8E710BD0000F8B500BF6F
:1042A000F8BC08BC9E467047F8B500BFF8BC08BC17
:1042B0009E46704743000000000000200030004090
:1042C00003000100E7E7E7E7C2C2C2C2E7C2C3C416
:1042D000C5C6C7C8010000000000000001020000C0
:1042E000FA000300000102200000000053656E6424
:1042F000696E672025642031362062697420776FEB
:1043000072647320746F2063686970005465726D05
:10431000696E616C0000000030313233343536375D
:0C4320003839414243444546000000008B
:08432C0030C1FF7F0100000019
:104334000000000000000000000000000000000079
:104344000000000000000000000000000000000069
:10435400B442000000000000000000000000000063
:104364000000000000000000000000000000000049
:104374000000000000000000000000000000000039
:104384000000000000000000000000000000000029
:104394000090D003010000000000000000000000B5
:1043A4000000000000000000000000000000000009
:1043B40000000000000000000000000003000000F6
:1043C4000000F1F000000000000000000000000008
:1043D40000000000000000000000000000000000D9
:1043E40000000000040000000000FB9A0000000030
:1043F40000000000000000000000000000000000B9
:1044040000000000000000000000000006000000A2
:104414000000DBBB00000000000000000000000002
:104424000000000000000000000000000000000088
:1044340000000000E7E7E7E7C2C2C2C2E7C2C3C4A4
:10444400C5C6C7C80805FF02534547474552205211
:1044540054540000000000000200000002000000AC
:104464000C430000E81900200004000000000000D4
:104474000000000000000000000000000000000038
:104484000000000000000000000000000000000028
:104494000C430000E81D0020100000000000000094
:1044A4000000000000000000000000000000000008
:1044B40000000000000000000000000000000000F8
:0C44C400250400000104000000000000BE
:1044D00000000000000000000000000000000000DC
:1044E00000000000000000000000000000000000CC
:1044F00000000000000000000000000000000000BC
:1045000000000000000000000000000000000000AB
:020000041000EA
:04120C00FEFFFFFFE3
:04000003000042496E
:00000001FF
